:100000000C94260A0C944E0A0C944E0A0C944E0A38
:100010000C944E0A0C944E0A0C944E0A0C944E0A00
:100020000C944E0A0C942C1F0C944E0A0C944E0AFD
:100030000C944E0A0C94661F0C944E0A0C944E0AB3
:100040000C94E21E0C944E0A0C94B01E0C948A1E62
:100050000C944E0A0C944E0A0C944E0A0C944E0AC0
:100060000C948D1F0C944E0A0A436F756E74657262
:10007000203A20000A73732068686D6D2068686DEF
:100080006D2068686D6D203D3D3D3D3D3D3D3D2011
:100090007365742073686966742074696D65000AFD
:1000A0007374206161616161612062626262626297
:1000B00020636363636363203D3D20736574207434
:1000C000617267657420666F722065616368207372
:1000D00068696674000A6372203D3D3D3D3D3D3DCB
:1000E0003D3D3D3D3D3D3D3D3D3D3D3D3D3D3D3D40
:1000F00020726573657420636F756E746572207409
:100100006F20302E000A6365206E6E6E6E6E6E205C
:100110003D3D3D3D3D3D3D3D3D3D3D3D3D3D3D3D0F
:10012000206564697420636F756E746572207661F2
:100130006C7565000A65203D3D3D3D3D3D3D3D3DC5
:100140003D3D3D3D3D3D3D3D3D3D3D3D3D3D3D20FC
:1001500067657420656570726F6D206461746100FD
:100160000A69203D3D3D3D3D3D3D3D3D3D3D3D3DE3
:100170003D3D3D3D3D3D3D3D3D3D3D20696E69740C
:1001800020616C6C2064617461000A7472203D3DD2
:100190003D3D3D3D3D3D3D3D3D3D3D3D3D3D3D3D8F
:1001A0003D3D3D3D3D20726561642074686520637E
:1001B000757272656E742074696D65000A747720BB
:1001C000797979796D6D64642068686D6D737320D9
:1001D0006477203D3D3D3D207772697465207468E9
:1001E000652063757272656E7420646174652C207D
:1001F00074696D6520616E6420646179206F66208A
:100200007765656B2028312D3729000A3F203D3D59
:100210003D3D3D3D3D3D3D3D3D3D3D3D3D3D3D3D0E
:100220003D3D3D3D3D3D2068656C70202D2074684E
:100230006973206D657373616765000A202A2A2A35
:100240002A2A2A2A2A2A2A2A2A2A2A2A2A2A2A2A0E
:100250002A2A2A2A2A2A2A2A2A2A2A2A2A2A2A2AFE
:100260002A2A2A2A2A2A2A2A2A2A2A2A2A2A2A2AEE
:100270002A2A2A2A2A2F000A202A205B584A582094
:1002800054454348207C20303835362039343339C2
:100290002039343439207C20616775736261736161
:1002A0007269323940676D61696C2E636F6D5D20D4
:1002B0002A000A2F2A2A2A2A2A2A2A2A2A2A2A2AE3
:1002C0002A2A2A2A2A2A2A2A2A2A2A2A2A2A2A2A8E
:1002D0002A2A2A2A2A2A2A2A2A2A2A2A2A2A2A2A7E
:1002E0002A2A2A2A2A2A2A2A2A2A2A2A000A0054B8
:1002F0000100FF10000000000000000000000000EE
:1003000000000000000000000000000000000000ED
:10031000000000000400000000023333060000006B
:100320000000000A03033F3F03033F3F03030A1893
:100330003830307F7F30391F0F08303C0F031824CE
:1003400024180A0F1F3930303B1F0E3F33020000C4
:1003500005030F1C38300530381C0F030A06070749
:10036000011F1F010307060A000000000F0F000015
:10037000000002B070090000000000000000000250
:10038000303008303C0F03000000000A0F1F3930E6
:10039000303030381F0F0500303F3F300A3F3F31CB
:1003A000303030303030300A0C1C3830303030389B
:1003B0001F0F0A030303030303033F3F030A0C1C3D
:1003C0003830303030381F0F0A0F1F38303030309F
:1003D000381F0F0A0000003F3F00000000000A0F16
:1003E0001F3930303030391F0F0A00000000000084
:1003F00000003F3F02181802583808000103070E9A
:100400001C383009060606060606060606083038B9
:100410001C0E070301000A0000000037370100002E
:10042000000A0F1F38333636333637130A3F3F0181
:1004300001010101013F3F0A3F3F30303030303988
:100440001F0F0A0F1F3830303030381C0C0A3F3F66
:100450003030303030381F0F093F3F3030303030CF
:100460003030093F3F000000000000000A0F1F3835
:1004700030303031391F0F0A3F3F000000000000CC
:100480003F3F04303F3F30080C1C383030381F0FDE
:10049000093F3F0103070E1C3830093F3F30303021
:1004A000303030300A3F3F0000000000003F3F0A7C
:1004B0003F3F0000000001033F3F0A0F1F3830306C
:1004C0003030381F0F0A3F3F0000000000000000DE
:1004D0000A0F1F383030363E1C3F370A3F3F0001BD
:1004E00003070E1C38300A18383030303030391FCE
:1004F0000F080000003F3F0000000A0F1F38303097
:100500003030381F0F0A03070E1C38381C0E070343
:100510000A0F1F383C1F1F3C381F0F0A3C3E0703C1
:10052000010103073E3C0A000000003F3F000000BD
:10053000000A3C3E3733313030303030043F3F30FA
:10054000300800000000030F3C300430303F3F080B
:1005500000000000000000000AC0C0C0C0C0C0C051
:10056000C0C0C0030000000A0F1F383030303030E8
:100570003F3F0A3F3F3030303030381F0F090F1FE8
:10058000383030303030300A0F1F383030303030B3
:100590003F3F090F1F3B33333333333307003F3FB4
:1005A0000000000009C3C7CECCCCCCEC7F3F093F94
:1005B0003F00000000003F3F023F3F0860E0C0C036
:1005C000C0E07F3F083F3F03070F1C383004003F67
:1005D0003F300A3F3F00003F3F00003F3F093F3FA1
:1005E00000000000003F3F090F1F38303030381F37
:1005F0000F09FFFF0C0C0C0C0E07030903070E0C70
:100600000C0C0CFFFF093F3F000000000000000938
:10061000303133333333331E0C06001F3F3030107C
:10062000090F1F38303030303F3F09070F1C38307A
:10063000381C0F070A0F1F38381F1F38381F0F0AC2
:1006400030381C0F07070F1C383009C1C3C7C6C696
:10065000C6E67F3F0A30383C3E3733313030300613
:1006600000010F1F383002FFFF0630381F0F010056
:10067000000000000000000000000000000000007A
:10068000000000000000000000000000000000006A
:100690000000040000000002FFFF060F0F00000F23
:1006A0000F0A3030FFFF3030FFFF30300A387CEE69
:1006B000C6FFFFC6C68E0C08060909C6F03C0F032C
:1006C0000A0080CCFEF3F39E0C0000020F0F05F031
:1006D000FC0E07030503070EFCF00A3070E0C0FCB7
:1006E000FCC0E070300AC0C0C0C0FCFCC0C0C0C0CC
:1006F00002000009C0C0C0C0C0C0C0C0C00200002D
:1007000008000000C0F03C0F030AFCFE87C36333FF
:100710001B0FFEFC050406FFFF000A0C8EC7C3C3B7
:10072000C3C3E77E3C0A0C0E070303C3C3C7FE3CEA
:100730000A80C0E070381C0EFFFF000A3F3F3333D1
:1007400033333373E3C30AFCFEE763636363E7C6D3
:10075000840A03030383C3E3733B1F0F0A1CBEF722
:10076000E3C3C3E3F7BE1C0A3C7EE7C3C3C3C3E7CE
:10077000FFFE02303002303008C0E0F0381C0E07B7
:1007800003096060606060606060600803070E1CC1
:1007900038F0E0C00A0C0E07030383C3E77E3C0A6F
:1007A000FCFE07F31B1BF307FEFC0AF8FE8683839F
:1007B000838386FEF80AFFFFC3C3C3C3C3E7FE3CBF
:1007C0000AFCFE0703030303070E0C0AFFFF0303E3
:1007D00003030307FEFC09FFFFC3C3C3C3C3030333
:1007E00009FFFFC3C3C3C3C303030AFCFE0703031C
:1007F0000383878E8C0AFFFFC0C0C0C0C0C0FFFF4C
:100800000403FFFF0308030303030303FFFF09FFC0
:10081000FFE0F0381C0E070309FFFF000000000096
:1008200000000AFFFF0E1C78781C0EFFFF0AFFFF76
:100830001C3870E0C080FFFF0AFCFE0703030303BF
:1008400007FEFC0AFFFFC3C3C3C3C3E77E3C0AFC29
:10085000FE070303030307FEFC0AFFFFC3C3C3C372
:10086000C3E77E3C0A3C7EE7C3C3C3C3C387060815
:10087000030303FFFF0303030AFFFF000000000060
:1008800000FFFF0AFFFF000000000000FFFF0AFF5B
:10089000FF000000000000FFFF0A0F1F38F0E0E03B
:1008A000F0381F0F0A0F1F3870E0E070381F0F0A72
:1008B00003030383C3E3733B1F0F04FFFF0303081A
:1008C000030F3CF0C0000000040303FFFF08180CF6
:1008D000060303060C180A000000000000000000D8
:1008E0000003030F0C0AC0E0703030303030F0F0FD
:1008F0000AFFFF303030303070E0C009C0E07030A7
:1009000030303030300AC0E0703030303030FFFFEF
:1009100009C0E07030303070E0C007C0FCFEC7C3D3
:10092000C30309C0E07030303030F0F009FFFF3011
:1009300030303070E0C002F6F60800000000000021
:10094000F6F608FEFE0080C0E070300403FFFF00F2
:100950000AF0F03030F0F03030F0E009F0F03030F4
:10096000303070E0C009C0E07030303070E0C00955
:10097000F0F03030303070E0C009C0E0703030301E
:1009800030F0F009F0F03030303070E0C009C0E0F5
:10099000303030303030300660FCFC60600009F0F0
:1009A000F00000000000F0F009F0F000000000008E
:1009B000F0F00AF0F0000000000000F0F00A3070E3
:1009C000E0C08080C0E0703009F0F000000000005E
:1009D000F0F00A3030303030B0F0F0703006C0E067
:1009E000FC3E070302FFFF0603073EFCE0C00000D9
:1009F000540100FF10000000000000000000000093
:100A000000000000000000000000000000000000E6
:100A100000000000000200000000000000000000D4
:100A20000000000000023030000A3E7FC0C0C0C09D
:100A3000C0C07F3E0A00000000000000007F3E0AA8
:100A40003E7FC1C1C1C1C1C140000A0041C1C1C195
:100A5000C1C1C17F3E0A00000101010101017F3EC9
:100A60000A0040C1C1C1C1C1C17F3E0A3E7FC1C1B0
:100A7000C1C1C1C17F3E0A00000000000000007F2C
:100A80003E0A3E7FC1C1C1C1C1C17F3E0A0040C113
:100A9000C1C1C1C1C17F3E020606000000000000C6
:100AA0000A3E7F0101010101017F3E0A3E7FC1C173
:100AB000C1C1C1C17F3E0A3E7FC1C1C1C1C1C141E7
:100AC000000A3E7FC1C1C1C1C1C17F3E0A3E7FC194
:100AD000C1C1C1C1C141000A3E7F01010101010143
:100AE0000100000000000000000000000000000005
:100AF0000000000000000000000000000A3E7F012E
:100B000001010101017F3E0A3E7FC1C1C1C1C1C1D6
:100B10007F3E0A3E7FC1C1C1C1C1C141000A3E7FC3
:100B2000C1C1C1C1C1C17F3E0A3E7FC1C1C1C1C1F6
:100B3000C141000A3E7F01010101010101000000E5
:100B400000000000000000000000000000000000A5
:100B500000000002FFFF0000000000000000000095
:100B60000000000000000000000000000000000085
:100B70000000000000000000000200000000000073
:100B8000000000000000000000020000000A7CFEDF
:100B9000030303030303FE7C0A00000000000000BF
:100BA00000FE7C0A0002838383838383FE7C0A0029
:100BB00082838383838383FE7C0A7CFE80808080A3
:100BC0008080FE7C0A7CFE83838383838302000A09
:100BD0007CFE83838383838302000A000203030372
:100BE000030303FE7C0A7CFE838383838383FE7C72
:100BF0000A7CFE838383838383FE7C026060000023
:100C0000000000000A7CFE838383838383FE7C0ACA
:100C10007CFE80808080808000000A0000808080D0
:100C200080808000000A0000808080808080FE7CC0
:100C30000A7CFE83838383838382000A7CFE838312
:100C40008383838382000000000000000000000016
:100C50000000000000000000000000000000000094
:100C60000A7CFE838383838383FE7C0A7CFE8080F0
:100C70008080808000000A0000808080808080006A
:100C8000000A0000808080808080FE7C0A7CFE83D9
:100C9000838383838382000A7CFE838383838383AD
:100CA00082000000000000000000000000000000C2
:100CB0000000000000000002FFFF0000000A537562
:100CC000636365737366756C6C79207365742064F7
:100CD00061746120746F20454550524F4D000A5495
:100CE000696D652053686966742033206D696E757F
:100CF0007465203A20000A54696D6520536869665E
:100D000074203320686F7572203A20000A54696D90
:100D1000652053686966742032206D696E7574654C
:100D2000203A20000A54696D652053686966742072
:100D30003220686F7572203A20000A54696D652070
:100D400053686966742031206D696E757465203A48
:100D500020000A54696D652053686966742031204B
:100D6000686F7572203A20000A54617267657420BA
:100D700053686966742033203A20000A5461726710
:100D800065742053686966742032203A20000A5442
:100D900061726765742053686966742031203A2057
:100DA000000A5375636365737366756C6C792067AD
:100DB000657420646174612066726F6D20454550D2
:100DC000524F4D000A000A526573657420436F75D7
:100DD0006E74657220746F20302E0000003A003A65
:100DE0000020002D002D00000A54696D65202D2083
:100DF0000000000000250028002B00000000002358
:100E000000260029003A000A20456570726F6D20A7
:100E100069732065786973747320696E20616464F6
:100E2000726573732030782500203A20000A4565EA
:100E300070726F6D20697320656D70747920696EB2
:100E400020616464726573732030780000000000D4
:100E5000240027002A00010204081020408001021B
:100E600004081020010204081020040404040404EF
:100E700004040202020202020303030303030A0042
:100E80000A4564697420436F756E74657220746FCF
:100E90002000207C206F6E20616464726573732073
:100EA0003A20000A496E707574206E65772074616F
:100EB0007267657420776974682076616C75652047
:100EC0003A2000207C206F6E206164647265737329
:100ED000203A20000A496E707574206E6577207381
:100EE000686966742074696D652077697468207616
:100EF000616C7565203A200027000A426164207009
:100F00006172616D657465722027000A000000003F
:100F100008000201000003040700000000000000B8
:100F200000460000FF0800053E5B4F5B3E053E6B40
:100F30004F6B3E051C3E7C3E1C05183C7E3C180554
:100F40001C577D571C051C5E7F5E1C0400183C1856
:100F500005FFE7C3E7FF040018241805FFE7DBE7F8
:100F6000FF0530483A060E05262979292605407FD7
:100F700005050705407F05253F055A3CE73C5A0516
:100F80007F3E1C1C0805081C1C3E7F0514227F2286
:100F90001405FFFFFFFFFF05F0F0F0F0F003FFFF87
:100FA000FF05000000FFFF050F0F0F0F0F050804DE
:100FB0007E04080510207E20100508082A1C08055C
:100FC000081C2A080805AA005500AA05AA55AA5512
:100FD000AA0530383E383005060E3E0E06020000E7
:100FE000015F0307000705147F147F1405444AFFBF
:100FF0004A320563130864630536494936480107D8
:10100000033E41410341413E05082A1C2A080508C8
:10101000083E08080260E00408080808026060054D
:101020006010080403053E5149453E03427F4005D8
:101030007149494946054149494936050F0808089B
:101040007F054F49494931053E494949300503016A
:1010500001017F05364949493605064949493E029D
:101060006C6C026CEC030814220414141414032294
:101070001408050159090906053E415D594E057ED2
:101080000909097E057F49494936053E41414141EB
:10109000057F4141413E057F49494941057F090995
:1010A0000901053E41414979057F0808087F034150
:1010B0007F4105304141413F057F08142241057FB2
:1010C00040404040057F020C027F057F0408107FEE
:1010D000053E4141413E057F09090906053E414162
:1010E000617E057F091929460546494949310501AF
:1010F000017F0101053F4040403F051F2040201F68
:10110000053F4038403F0563140814630503047825
:101110000403056151494543037F41410503040828
:1011200010600341417F05040201020404808080B5
:101130008003010204043844447C047F444438049E
:1011400038444444043844447F0438545458040414
:101150007E05010418A4A47C047F040478017D03A7
:1011600084857C047F102844017F057C0478047802
:10117000047C040478043844443804FC242418040F
:10118000182424FC047C0404080458545434030434
:101190007F04043C40407C041C20407C053C4030E3
:1011A000403C046C10106C041CA0A07C04645454DB
:1011B0004C0408364141017F0441413608040201D4
:1011C0000201057F4141417F053E55555541053896
:1011D00044443844057C2A2A3E14057E0202060651
:1011E00005027E027E020563554941630538444489
:1011F0003C0405407E201E200506027E0202086394
:1012000013086463006060052A2A2A2A2A03514AC7
:101210004403444A51050000FF010303E080FF0539
:101220003612362436030205020218180210100581
:101230003040FF0101041F01011E000000000901F0
:10124000017F017F020C027F00000000000001000E
:10125000017D0418247E2404447E454105221C148B
:101260001C2205012A7C2A010177044E55553903B9
:10127000020002077E81BDA5A5817E0326292F05D8
:1012800008142A1422040808081803080808077E0E
:1012900081BD95A9817E05010101010103020502BD
:1012A00003242E24031915120315150A0202010442
:1012B000F82040780506097F017F02181804008095
:1012C000A0C003121F10032629260522142A140881
:1012D00008402F1008041E117C08402F10080462DB
:1012E000554C0915553F1008041E117C053048481F
:1012F0004D40057815161478057814161578057A7A
:101300001514157A057816151679057815141578BB
:10131000057814151478077E09097F494941059E0F
:10132000A1612121057C54554644057C5456454411
:10133000057E55544546057C5554454403457E4439
:1013400003447E4503467D4603457C4505087F49A9
:10135000413E057C0A11227D053844454638053852
:1013600044464538053A4544453A053846454639E8
:10137000053845444538052214081422057C625A74
:10138000463E053C4041423C053C4042413C053C18
:101390004241423C053C4140413C0502047A050281
:1013A000043F12120C057E49494E30043845467CF4
:1013B000043844467D043846457E043A45467D045B
:1013C0003845447D04304A4D7A07205454385454EB
:1013D00058049CA262220438555658043854565971
:1013E000043856555A043855545902017A027A0184
:1013F000030279020302780204304B4B3C047A0961
:101400000A710430494A300430484A3104304A49AC
:10141000320432494A3104394444390508082A085B
:10142000080438544C380438414278043840427932
:10143000043842417A043A40407A0418A0A2790460
:10144000FC282810041AA0A07A00AC2011241FBE8A
:10145000CFEFD8E0DEBFCDBF12E0A0E0B1E0E8ED15
:10146000F2E502C005900D92A632B107D9F724E04B
:10147000A6E2B2E001C01D92A539B207E1F71AE079
:10148000C6E2DAE004C02197FE010E946A27C53255
:10149000D107C9F70E9428210C946A290C940000F6
:1014A0000895089520918804309189046217730784
:1014B00084F52091860430918704821793074CF5B8
:1014C00097FD27C077FD25C020918A04269FF00153
:1014D000279FF00D11249C0153E0359527955A95CF
:1014E000E1F72E0F3F1FE0918204F0918304E20F99
:1014F000F31F50819C012770332780E890E002C0E1
:10150000959587952A95E2F7411104C0809585232A
:1015100080830895852BFCCFCF93DF9320918604A1
:101520003091870482179307ACF5AC01460F571F23
:101530002417350734F4B901681B790B1616170602
:101540004CF5EC01C770DD279E01260F371F2930AF
:1015500031051CF5E3E095958795EA95E1F7E09173
:101560008204F0918304E80FF91F48E050E0461B25
:10157000570B2FEF30E002C0220F331F4A95E2F7DE
:10158000332702C035952795CA95E2F7209530811B
:1015900023232083DF91CF9108959C01295F3F4F42
:1015A00043E0359527954A95E1F7860F971FBC01D3
:1015B00053E0759567955A95E1F72097A1F0A091B2
:1015C0008204B0918304A90141505109A40FB51FB1
:1015D0004FEF50E002C055954795CA95E2F7409508
:1015E0005C9145234C932617370750F4E091820411
:1015F000F0918304E20FF31F10822F5F3F4FF3CF70
:101600009C0127703327232B29F2E0918204F0916B
:101610008304E60FF71F91958195910987709927AB
:101620002FEF30E0A90102C0440F551F8A95E2F761
:10163000CA018095908189238083ACCF8F929F923D
:10164000AF92BF92CF92DF92EF92FF920F931F93D0
:10165000CF93DF93E0918604F09187049C01260FDD
:10166000371FE217F3071CF4BF01681B790B2091A9
:10167000880430918904121613060CF0EBC08E1703
:101680009F070CF0E7C0161617060CF0E3C0FA012E
:10169000241735070CF4F901E230F1050CF4DAC037
:1016A000382F3770AF014150510920918A04249F8F
:1016B000F001259FF00D1124AB01430F511D49305E
:1016C0005105ECF548E050E05A01A61AB70A4FEF71
:1016D00050E002C0440F551FAA94E2F755278A0133
:1016E00002C0159507953A95E2F79801F02EBC01D6
:1016F00033E0769567953A95E1F7E60FF71F38974F
:1017000020956E177F0708F0A5C040918204509184
:101710008304DA01AE0FBF1F80918A04EF01C81B5A
:10172000D1094C0F5D1FEA0198819F213C91322322
:10173000932B9C9380918A04E81BF109E2CFC82F78
:10174000C60FC7709C2EAC01495F5F4F57FF02C0A8
:10175000495F5F4F23E0559547952A95E1F7680F5C
:10176000791F77FF02C0695F7F4F83E075956795AA
:101770008A95E1F7AFEFB0E08D01032E02C0159519
:1017800007950A94E2F7C02E88E090E08919910944
:1017900001C0AA0F8A95EAF7DA2ECF01802E809435
:1017A0002A2F2095009709F455C03323E1F0E091EA
:1017B0008204F09183047A01E80EF91E870101503A
:1017C00011090E0F1F1FA0918A04B0E0A095B095DB
:1017D000EE0DFF1DAE0FBF1FEC91EC21D801FC9167
:1017E000F821EF2BEC93FA0100918A0410E0E61740
:1017F000F707A0F4A0918204B09183047C01EE0E5F
:10180000FF1EE701C01BD10B8E010A0F1B1FE80151
:101810001881AE0DBF1D1C933196E6CF9920A9F01B
:10182000E0918204F0918304DB01A80FB91F7F01CE
:10183000EA0EFB1EA01BB10BEA0FFB1FE081ED219E
:10184000D701FC91F223EF2BEC93E0918A048E1BDD
:101850009109A8CFDF91CF911F910F91FF90EF9049
:10186000DF90CF90BF90AF909F908F900895409160
:10187000F8035091F9036091F5037091F60325E0A8
:1018800030E090E04817590758F4FB01E20FF31FCE
:10189000E491F0E031962E0F3F1F4F5F5F4FF2CF84
:1018A000C901089520918804309189046217730753
:1018B0000CF047C0FB01E40FF51FE217F3071CF023
:1018C000A901461B570B14161506DCF59C01277061
:1018D0003327E0E8F0E002C0F595E7952A95E2F7B6
:1018E00097FD079623E0959587952A95E1F7A091B6
:1018F0008A04B0E0460F571F4A9F90014B9F300D5E
:101900005A9F300D1124AC01420F531F6A9F900162
:101910006B9F300D7A9F300D1124820F931FE0953D
:101920008417950770F4A0918204B0918304A80FE6
:10193000B91F2C912E232C9320918A04820F911D84
:10194000EFCF08958F929F92BF92CF92DF92EF9246
:10195000FF920F931F93CF93DF93A0918604B091D2
:101960008704FC01E40FF51FAE17BF071CF4AD019F
:10197000481B590BE0918804F0918904EB01C20FD8
:10198000D31FEC17FD071CF49F01261B370B97FF95
:1019900004C0480F591F90E080E06E177F0764F085
:1019A000DF91CF911F910F91FF90EF90DF90CF903B
:1019B000BF909F908F9008958A179B078CF71416FD
:1019C000150674F7121613065CF7A82FA770C090BF
:1019D0008A04D12C6C9DE0016D9DD00D7C9DD00DB5
:1019E0001124FA01EA0FF11D39970CF049C0E8E023
:1019F000F0E07F01E41AF50AEFEFF0E002C0EE0F2D
:101A0000FF1FEA94E2F7FF2702C0F595E795AA9534
:101A1000E2F7260F371F2C9D70012D9DF00C3C9D89
:101A2000F00C112473E0969587957A95E1F78C0F69
:101A30009D1F011113C0E0958E159F0508F0B0CFD2
:101A4000A0918204B0918304A80FB91F2C912E237A
:101A50002C9320918A04820F911DEECF8E159F0545
:101A600008F09ECFA0918204B0918304A80FB91F03
:101A70002C912E2B2C9320918A04820F911DEECF56
:101A8000B82FB40FB770FC013796F7FD379663E0B7
:101A9000F595E7956A95E1F7EC0FFD1F840F951F0B
:101AA00097FD079643E0959587954A95E1F78C0F4A
:101AB0009D1F4FEF50E04A010A2E02C09594879473
:101AC0000A94E2F768E070E06B1B710901C0440FF3
:101AD0006A95EAF72C9D70012D9DF00C3C9DF00C51
:101AE000112430E020E001113DC08F0101501109A7
:101AF000582D509540952E153F0508F051CFAA233B
:101B000061F06091820470918304E801C20FD31FD9
:101B1000C60FD71F6881652368836F01C816D90671
:101B200070F46091820470918304620F731F6C0DD6
:101B30007D1DEB011882DFEFCD1ADD0AEFCFBB234D
:101B400061F06091820470918304EC01C20FD31F95
:101B5000C60FD71F68816423688360918A04260FAB
:101B6000311DC9CF8F0101501109BB24BA942E1524
:101B70003F0508F015CFAA2369F0C0908204D090E9
:101B80008304B801620F731F6C0D7D1DEB01D880BB
:101B9000D828D8826F01C816D90670F460918204E3
:101BA00070918304620F731F6C0D7D1DEB01B88271
:101BB000DFEFCD1ADD0AEFCFBB2369F0C0908204BE
:101BC000D0908304BC01620F731F6C0D7D1DEB016F
:101BD000D880D42AD88260918A04260F311DC7CFBD
:101BE0002091F5033091F6032817390721F09093DF
:101BF000F6038093F5038091F5039091F603FC01C1
:101C0000349121E0343509F020E02093F703FC0102
:101C10003296E491F0E0F093F903E093F803FC01CD
:101C20003396E491F0E0F093FB03E093FA03FC01B8
:101C30003496E491F0E0F093FD03E093FC0381E03F
:101C400008951F93CF93DF93BC016F5F7F4FA0E890
:101C5000B0E086179707A0F5EC01F3E0D695C7959D
:101C6000FA95E1F7282F2770AD0102C055954795E9
:101C70002A95E2F7142F109550E040E0E0918D0492
:101C8000F0918E044E9F90014F9F300D5E9F300D5E
:101C90001124E3E036952795EA95E1F72C0F3D1FD7
:101CA000E0918B04F0918C04E20FF31F208121233B
:101CB00020834F5F5F4F4031510501F70196C9CF37
:101CC000DF91CF911F910895AF92BF92CF92DF9293
:101CD000EF92FF920F931F93CF93DF936C017B01E1
:101CE0008B01040F151FEB015E01AE18BF08C01772
:101CF000D10759F06991D601ED91FC910190F081E5
:101D0000E02DC6010995892B79F7C501DF91CF91A7
:101D10001F910F91FF90EF90DF90CF90BF90AF9009
:101D20000895FC01538D448D252F30E0842F90E0E1
:101D3000821B930B541710F0CF96089501970895C6
:101D4000FC01918D828D981761F0A28DAE0FBF2F8F
:101D5000B11D5D968C91928D9F5F9F73928F90E0E5
:101D600008958FEF9FEF0895FC01918D828D981754
:101D700031F0828DE80FF11D858D90E008958FEF91
:101D80009FEF0895FC01918D228D892F90E0805C5A
:101D90009F4F821B91098F739927089586E393E0E3
:101DA0000E94C20E21E0892B09F420E0822F0895C1
:101DB00080E090E0892B29F00E94CE0E81110C94D6
:101DC00000000895FC01A48DA80FB92FB11DA35ADE
:101DD000BF4F2C91848D90E001968F739927848F4B
:101DE000A689B7892C93A089B1898C91837080646E
:101DF0008C93938D848D981306C00288F389E02D0F
:101E000080818F7D80830895EF92FF920F931F93BF
:101E1000CF93DF93EC0181E0888F9B8D8C8D98139D
:101E20001AC0E889F989808185FF15C09FB7F894A9
:101E3000EE89FF896083E889F989808183708064F5
:101E400080839FBF81E090E0DF91CF911F910F9140
:101E5000FF90EF900895F62E0B8D10E00F5F1F4F4F
:101E60000F731127E02E8C8D8E110CC00FB607FC5E
:101E7000FACFE889F989808185FFF5CFCE010E94EC
:101E8000E20EF1CFEB8DEC0FFD2FF11DE35AFF4F6A
:101E9000F0829FB7F8940B8FEA89FB89808180627A
:101EA000CFCF0F931F93CF93DF938C01D0E0C0E08F
:101EB000F801EC0FFD1F6491662341F086E393E087
:101EC0000E94040F892B11F02196F2CFCE01DF91F1
:101ED000CF911F910F910895CF93DF93EC01888DDF
:101EE0008823B9F0AA89BB89E889F9898C9185FD95
:101EF00003C0808186FD0DC00FB607FCF7CF8C9123
:101F000085FFF2CF808185FFEDCFCE010E94E20EEA
:101F1000E9CFDF91CF910895833081F028F48130AB
:101F200099F08230A9F008958730A9F08830C9F07F
:101F30008430B1F4809180008F7D03C08091800057
:101F40008F7780938000089584B58F7784BD08953E
:101F500084B58F7DFBCF8091B0008F778093B000E8
:101F600008958091B0008F7DF9CFCF93DF93282F14
:101F700030E0F901E35FF04F8491F901EA5AF14F43
:101F8000D491F901E659F14FC491CC23A1F081110C
:101F90000E948C0FEC2FF0E0EE0FFF1FE550F24F88
:101FA000A591B491EC91ED2381E090E009F480E0FB
:101FB000DF91CF91089580E090E0FACF1F93CF9307
:101FC000DF93282F30E0F901E35FF04F8491F901AE
:101FD000EA5AF14FD491F901E659F14FC491CC235B
:101FE000A9F0162F81110E948C0FEC2FF0E0EE0F5C
:101FF000FF1FEF50F24FA591B4918FB7F894EC9179
:10200000111108C0D095DE23DC938FBFDF91CF91F3
:102010001F910895DE2BF8CFE0E1FFE0E491E3307B
:1020200039F160F4E130D1F0E230E9F060E080387D
:1020300091050CF061E083E00C94DE0FE73011F1C4
:10204000E83041F1E43091F7209180002062209344
:10205000800090938B0080938A00089594B59068D7
:1020600094BD87BD089594B5906294BD88BD0895D0
:1020700020918000206820938000909389008093B5
:10208000880008959091B00090689093B00080937C
:10209000B30008959091B00090629093B000809347
:1020A000B4000895CF93DF9390E0FC01EA5AF14F1A
:1020B00024918659914FFC0184918823D1F090E0BE
:1020C000880F991FFC01E45BF14FA591B491FC01CD
:1020D000EF50F24FC591D491623071F49FB7F894EC
:1020E0003C91822F809583238C93E8812E2B28832B
:1020F0009FBFDF91CF9108958FB7F894EC912E2B6D
:102100002C938FBFF6CF3FB7F89480918A029091BD
:102110008B02A0918C02B0918D0226B5A89B05C0C0
:102120002F3F19F00196A11DB11D3FBFBA2FA92F56
:10213000982F8827BC01CD01620F711D811D911D53
:1021400042E0660F771F881F991F4A95D1F70895BF
:102150008F929F92AF92BF92CF92DF92EF92FF92B7
:102160006B017C010E9483104B015C01C114D104FE
:10217000E104F104B9F00E948310681979098A0911
:102180009B09683E73408105910580F321E0C21AE6
:10219000D108E108F10888EE880E83E0981EA11CA2
:1021A000B11CE4CFFF90EF90DF90CF90BF90AF9045
:1021B0009F908F900895AF92BF92CF92DF92EF924F
:1021C000FF920F931F93CF93DF936C017B015A0112
:1021D000D0E0C0E0022F10E0F60180819181C817A5
:1021E000D907B8F4B5016C0F7D1FC8010C2E02C0D1
:1021F000959587950A94E2F741E080FF40E0C7019A
:102200000E94520A60E070E0CB010E94A810219663
:10221000E3CFDF91CF911F910F91FF90EF90DF906F
:10222000CF90BF90AF9008952F923F924F925F92C0
:102230006F927F928F929F92AF92BF92CF92DF92D6
:10224000EF92FF920F931F93CF93DF9300D000D0B4
:10225000CDB7DEB7182F7C836B832A0169010E94FA
:10226000370C5C0180E8810F0E94370C4C01809193
:10227000F5039091F603FC01EA0DFB1D2491880DF6
:10228000991DFC018491EE24E394F12C422F50E03F
:102290005A8349832B803C8058E0250E311C052C45
:1022A000000C660877088091FE039091FF03970168
:1022B00021503109E981FA812E173F0708F055C0F6
:1022C000F2E0CF16D10461F42091FC033091FD03BC
:1022D00000E041E050E06B817C8101970E94A20CFC
:1022E00085010E0D1F1DE091F503F091F60360913D
:1022F000FE037091FF038091F703882351F194014D
:102300002E0D3F1DE20FF31F24914B815C818CEF5A
:1023100093E00E94DB10E091F503F091F603E00FEB
:10232000F11F24916091FE037091FF03CB01019690
:102330009093FF038093FE03A1018CEF93E00E9432
:10234000DB10C301B2010E94A8102FEFE21AF20ABB
:10235000AACFE00FF11F2491CB0101969093FF03C8
:102360008093FE034B815C81E8CF42E0C416D10428
:1023700061F42091FC033091FD0300E041E050E066
:102380006B817C8101970E94A20C8091FE03909149
:10239000FF0397FD0FC020918604309187048217B8
:1023A000930744F44091FC035091FD036B817C81C1
:1023B0000E94520C8091FE039091FF03019690932E
:1023C000FF038093FE030F900F900F900F90DF910B
:1023D000CF911F910F91FF90EF90DF90CF90BF9022
:1023E000AF909F908F907F906F905F904F903F90B5
:1023F0002F9008952F923F924F925F926F927F920B
:102400008F929F92AF92BF92CF92DF92EF92FF9204
:102410000F931F93CF93DF9300D000D0CDB7DEB7DB
:102420002C017B016A012091FC033091FD032150B6
:1024300031093C832B838B819C81019609F4B4C0C4
:10244000F092FF03E092FE034091FC035091FD03E4
:10245000B601C7010E941E0B8091880490918904E7
:102460001816190624F4B601C7010E948C0AF2015D
:10247000A080B1802B813C81285031093A83298387
:10248000F50111915F01112309F482C0812F90E0C1
:102490002091F8033091F903821793078CF3209170
:1024A000FA033091FB032817390754F38091FE0398
:1024B0009091FF03813491051CF7812F0E94370C06
:1024C0001C0180E8810F0E94370C2091F5033091A8
:1024D000F603F901E20DF31DE4916E2E712CF90162
:1024E000E80FF91FE49110E000E0FFEF2F1A3F0A18
:1024F0004C012FEF821A920A8091FE039091FF0304
:102500000615170508F03AC0800F911F9C012E197F
:102510003F092C153D0578F5E091F503F091F603A0
:102520002091F703222371F02B813C812830310563
:102530004CF49401200F311FE20FF31FE491F0E0FF
:102540002B810DC09101200F311FE20FF31FE49189
:10255000F0E02B813C812830310594F3298102C0C1
:10256000F595E7952A95E2F741E0E0FF40E070E05D
:1025700060E00E94520A0F5F1F4FBECF3FEF631A09
:10258000730A860D971D9093FF038093FE0378CF07
:1025900064E170E080E090E00E94A8108B819C8153
:1025A00001979C838B8347CF0F900F900F900F90D4
:1025B000DF91CF911F910F91FF90EF90DF90CF901F
:1025C000BF90AF909F908F907F906F905F904F9053
:1025D0003F902F9008950895089520916202260F4C
:1025E0003327331F21323105ECF420910E03FC0117
:1025F00090E080E0243069F082E00895A0916202CA
:102600002191AC014E5B5D4FA40FB52FB11D2C93F2
:102610000196861798F380916202680F60936202B8
:1026200080E0089581E0089510920E0381E0809388
:102630000D031092E80261E082E10E94DE0F61E08A
:1026400083E10E94DE0FE9EBF0E080818E7F8083E2
:1026500080818D7F808388E48093B80085E48093B7
:10266000BC000895CF93DF9391E0909341028823BB
:10267000B9F0C091B800D091BA008091BC008A7BBB
:102680008093BC0060E082E10E94DE0F60E083E1A5
:102690000E94DE0F0E941413D093BA00C093B800BA
:1026A000DF91CF9108958F929F92AF92BF92CF9278
:1026B000DF92EF92FF920F931F93CF93DF93D0910E
:1026C000D703D13208F0D7C0182FC09135030E942C
:1026D00083106B017C0180910E0381116BC082E03D
:1026E00080930E0310930D038FEF80930C031092D1
:1026F0000B03D0930A03A5E1B3E0EAEEF2E080E039
:10270000D81391C01092E9028091E902CC0FC82B36
:10271000C093E9028091E802813009F088C01092EC
:10272000E8020E9483106B017C018091E902809392
:10273000BB008091100390911103A0911203B091FE
:102740001303892B8A2B8B2BA1F00E9483100091FD
:1027500010031091110320911203309113036C198F
:102760007D098E099F09061717072807390708F4FE
:1027700042C08091BC0083FDD8CF85EC8093BC0023
:102780000E9483106B017C0180910E03823009F45A
:1027900050C080910C038F3F09F46FC080910C03EF
:1027A000803209F46CC080910C03803309F469C055
:1027B00084E026C08091100390911103A091120330
:1027C000B0911303892B8A2B8B2B09F484CF0E94A1
:1027D00083108090100390901103A0901203B0908A
:1027E00013036C197D098E099F0986169706A806A2
:1027F000B90608F070CF80910F030E94321385E074
:102800001092D8031092D70310921403DF91CF9146
:102810001F910F91FF90EF90DF90CF90BF90AF90FE
:102820009F908F9008959D9191938F5F69CF85EED2
:10283000A5CF8091100390911103A0911203B09144
:102840001303892B8A2B8B2B09F49ECF0E948310B4
:102850000091100310911103209112033091130382
:102860006C197D098E099F09061717072807390774
:1028700008F08ACFC0CF81E0C3CF80E0C1CF82E033
:10288000BFCF83E0BDCF0895E091DA038091D903F3
:10289000E81730F4F0E0E054FD4F808190E00895B7
:1028A0008FEF9FEF08959091DA038091D9032FEF76
:1028B0003FEF981748F4E92FF0E0E054FD4F2081F6
:1028C00030E09F5F9093DA03C90108958091D903A6
:1028D0009091DA03891B990B0895CF92DF92EF92C2
:1028E000FF920F931F93CF93DF937C01CB018A015B
:1028F00020911403222389F0EB016B01C40ED51E35
:10290000CC15DD0569F06991D701ED91FC9101903D
:10291000F081E02DC7010995F3CF642F0E94ED12DD
:10292000C801DF91CF911F910F91FF90EF90DF9041
:10293000CF900895CF93DF931F92CDB7DEB7698311
:10294000209114032223F9F02091D703203258F06C
:1029500021E030E0FC013383228390E080E00F909F
:10296000DF91CF9108958091D803E82FF0E0EB5EDE
:10297000FC4F998190838F5F8093D8038093D70316
:1029800081E090E0ECCF61E0CE0101960E94ED1273
:10299000F7CF90E080E008958DEE92E00E94510F15
:1029A00082EB92E00E94510F87E792E00E94510F64
:1029B0008BE392E00E94510F8BE092E00E94510F56
:1029C0008CEB91E00E94510F8AE891E00E94510F38
:1029D00080E691E00E94510F84E391E00E94510F44
:1029E00085E091E00E94510F85ED90E00E94510F2B
:1029F0008FE990E00E94510F84E790E00C94510F12
:102A0000CF93DF93D62FC1E0C09314039BE0909344
:102A100035031092D8031092D703682F8BED93E003
:102A20000E949A1481E00E945313C09314038CE017
:102A3000809335031092D8031092D7036D2F8BED3E
:102A400093E00E949A1481E0DF91CF910C9453138C
:102A500020918D0430918E04E3E036952795EA9518
:102A6000E1F780912602829FA001839F500D1124DF
:102A700080918B0490918C04840F951F40E02091ED
:102A80008F043091900474E0369527957A95E1F79C
:102A90004217130618F520918D0430918E04220FF1
:102AA000331F280F391F682FFC0180918D049091EE
:102AB0008E0453E0969587955A95E1F75E2F561B45
:102AC0005817190640F481918EBD00000DB407FE21
:102AD000FDCF8EB5EACF4F5FC901D1CF80ED97E032
:102AE0004B9902C00197E1F789B12091260290E14C
:102AF000299F900111248F70822B8BB984E089B9B2
:102B000089B9809126028F5F8F7080932602089585
:102B10008F929F92AF92BF920F931F93CF93DF93A9
:102B2000CDB7DEB7A1970FB6F894DEBF0FBECDBF0D
:102B300019A2423008F44AE08E010F5D1F4F842E27
:102B4000912CB12CA12CA50194010E942D27E62FD8
:102B5000B901CA01EA3044F5E05DD801EE938D0178
:102B6000232B242B252B79F790E080E0109769F038
:102B7000FD0101900020E9F73197AF014A1B5B0B83
:102B8000BD0186E393E00E94640EA1960FB6F8940F
:102B9000DEBF0FBECDBFDF91CF911F910F91BF90D0
:102BA000AF909F908F900895E95CD7CF009769F020
:102BB000FC0101900020E9F73197AF01481B590B48
:102BC000BC0186E393E00C94640E90E080E00895ED
:102BD000682F70E090E080E04AE00C948815CF9276
:102BE000DF92EF92FF92CF93DF936C01990FEE0883
:102BF000FF08F7FE19C06DE286E393E00E94040F20
:102C0000EC0166277727CB016C197D098E099F0996
:102C10004AE00E9488158C0F9D1FDF91CF91FF9095
:102C2000EF90DF90CF9008954AE0C701B601DF91A1
:102C3000CF91FF90EF90DF90CF900C948815CF92BA
:102C4000DF92EF92FF920F931F93CF93DF93C62FE4
:102C500091E09093140398E6909335031092D80373
:102C60001092D703682F8BED93E00E949A1481E0B5
:102C70000E945313D82F8111D3C00E9483106B017F
:102C80007C0180910E03811165C081E080930E0369
:102C900080930D039FEF90930C0310920B039C0FF6
:102CA00090930A038093E9028091E902806D8093FA
:102CB000E9028091E802813009F08CC01092E802AC
:102CC0000E9483106B017C018091E9028093BB001C
:102CD0008091100390911103A0911203B0911303FE
:102CE000892B8A2B8B2BA1F00E948310009110035B
:102CF0001091110320911203309113036C197D0977
:102D00008E099F09061717072807390708F443C0DB
:102D10008091BC0083FDD8CF85EC8093BC000E94DD
:102D200083106B017C0180910E03813009F454C043
:102D300080910B038C1708F071C080910B03EAEEB1
:102D4000F2E0A0ECB2E090E0981751F121912D93C0
:102D50009F5FFACF8091100390911103A09112030D
:102D6000B0911303892B8A2B8B2B09F48ACF0E94F5
:102D700083100091100310911103209112033091E0
:102D800013036C197D098E099F0906171707280779
:102D9000390708F076CF80910F030E94321380E04C
:102DA0001092DA038093D90300EE12E08BED93E0EA
:102DB0000E945314F80181938F01DF5FCD13F6CF8A
:102DC0008C2FDF91CF911F910F91FF90EF90DF90AB
:102DD000CF90089585EEA1CF8091100390911103BB
:102DE000A0911203B0911303892B8A2B8B2B09F42A
:102DF0009ACF0E948310009110031091110320912B
:102E00001203309113036C197D098E099F0906176F
:102E100017072807390708F086CFBDCF8C2F8FCF33
:102E2000C0E0CECF67E080E00E941F162091E00254
:102E3000822F90E0F4E095958795FA95E1F7982F29
:102E4000990F990F891B880F820F8093ED032091B2
:102E5000E102822F90E0A4E095958795AA95E1F78D
:102E6000982F990F990F891B880F820F8093EC037D
:102E70008091E20286FF64C0982F9F71292F30E075
:102E8000E4E035952795EA95E1F7322F330F330FBC
:102E9000231B220F290F2093EB0380728093EF03F3
:102EA0002091E302822F90E034E0959587953A9542
:102EB000E1F7982F990F990F891B880F820F809344
:102EC000EE032091E402822F90E044E095958795EF
:102ED0004A95E1F7982F990F990F891B880F820F58
:102EE0008093EA034091E502842F90E054E09595A9
:102EF00087955A95E1F7982F990F990F891B880F9D
:102F0000840F8093E9039091E602292F30E064E07A
:102F1000359527956A95E1F7822F880F880F522FF4
:102F2000581B852F880F890F90E09C012053384F44
:102F300047FD1AC03093E8032093E70381E008952A
:102F4000282F2F73822F90E074E0959587957A95BE
:102F5000E1F7982F990F990F891B880F820F8093A3
:102F6000EB031092EF039CCF8C5C974F9093E80398
:102F70008093E703E3CF60E08A3020F490E39093FE
:102F8000BD0261E070E063547D4F4AE090E00E9432
:102F900065268DEB92E008950E94121788EE9DE061
:102FA0000E94510F87EE9DE00E94510F6091E70350
:102FB0007091E80390E080E04AE00E94881585EE79
:102FC0009DE00E94510F8091E9030E94BB170E946F
:102FD000D61583EE9DE00E94510F8091EA030E9476
:102FE000BB170E94D61581EE9DE00E94510F809183
:102FF000EB030E94BB170E94D6158FED9DE00E9447
:10300000510F8091EC030E94BB170E94D6158DEDE5
:103010009DE00E94510F8091ED030E94BB170E941A
:10302000D61561E082E00E941F168091E00286FFC3
:103030000CC08CED9DE00E94510F8091EF03811137
:1030400016C084EF91E00E94D6158BED9DE00E94A2
:10305000510FE091EE03E83008F0E0E0F0E0EE0F11
:10306000FF1FE655FE4F808191810C94D61580EFAD
:1030700091E0E9CF1092BC021092BB024AE061EBF2
:1030800072E090E080E00E94652686EC9DE00E9460
:10309000510F84EC9DE00C94510F0E941217809107
:1030A000EB0390914002891738F482E090E090930E
:1030B0003F0280933E020895891315C02091EC03CE
:1030C00090913D02291788F329130DC080913E028B
:1030D00090913F02892B11F00E943A1810923F0202
:1030E00010923E02089590913C028917B8F389131B
:1030F00013C02091EC0390913B02291778F3291318
:103100000BC080913E0290913F02019711F00E9406
:103110003A1881E090E0CBCF90913A028917C8F33A
:103120008913C3CF9091EC0380913902981788F3EB
:103130009813BBCF80913E0290913F02029709F411
:10314000B4CF0E943A18B1CFCF93DF9380912F0272
:1031500090913002029709F05FC088E00E94B50F9D
:10316000EC0190932E0280932D028CE00E94B50F0B
:1031700090932C0280932B028091290290912A0235
:10318000C817D90701F1CD2BC1F48091BB029091F2
:10319000BC0201969093BC028093BB024AE061EBB3
:1031A00072E00E94652688E690E00E94510F8091AF
:1031B000BB029091BC020E94EF1564EF71E080E0C9
:1031C00090E00E94A81080912D0290912E02909381
:1031D0002A028093290280912B0290912C02209147
:1031E0002702309128028217930751F0892B11F49E
:1031F0000E943A1864EF71E080E090E00E94A8100D
:1032000080912B0290912C029093280280932702A8
:103210001092300210922F0280912F029091300272
:1032200001969093300280932F02DF91CF91089501
:10323000FC0180819181009711F00C940C28089575
:10324000EF92FF920F931F93CF93DF93EC017B01DB
:103250008A0188819981009729F02A813B8124176E
:10326000350788F4B8016F5F7F4F0E94952800975B
:1032700091F0998388831B830A832C813D81232BC2
:1032800011F4FC0110821D830C83B70188819981A0
:103290000E9463290CC088819981009711F00E94D7
:1032A0000C28198218821D821C821B821A82CE0170
:1032B000DF91CF911F910F91FF90EF900895FC0146
:1032C000118210821382128215821482FB010190F6
:1032D0000020E9F73197AF01461B570B0C942019DA
:1032E00085ED8093BC008091100390911103A09113
:1032F0001203B09113030796A11DB11D23E0B695EB
:10330000A795979587952A95D1F72091BC0024FD24
:1033100003C010920E0308954091100350911103C1
:103320006091120370911303452B462B472B69F3D1
:103330000097A105B10541F025E32A95F1F70000BA
:103340000197A109B109E1CF80910F030C943213C9
:10335000CF93DF93EB010E94AE268883CE01DF91ED
:10336000CF9108950F931F93CF93DF938C01EB01BF
:103370000E94AE268883C80101960E94AE268983EA
:10338000CE01DF91CF911F910F91089567E372E015
:1033900090E080E00E94B21965E372E084E190E081
:1033A0000E94B21963E372E088E290E00E94B219D1
:1033B00060E472E08CE390E00E94A8196DE372E093
:1033C0008DE390E00E94A8196CE372E08EE390E038
:1033D0000E94A8196BE372E08FE390E00E94A819A5
:1033E0006AE372E080E490E00E94A81969E372E069
:1033F00081E490E00E94A81981EA9DE00E94510FAB
:103400008EE89DE00E94510F809137029091380222
:103410000E94EF158BE79DE00E94510F80913502CD
:10342000909136020E94EF1588E69DE00E94510FB0
:1034300080913302909134020E94EF1582E59DE065
:103440000E94510F809140020E94E8158AE39DE09E
:103450000E94510F80913D020E94E81584E29DE098
:103460000E94510F80913C020E94E8158CE09DE083
:103470000E94510F80913B020E94E81586EF9CE06C
:103480000E94510F80913A020E94E8158EED9CE057
:103490000E94510F809139020C94E815FF920F930E
:1034A0001F93CF93DF938C01EB01F8800E94AE262F
:1034B000F81621F06F2DC8010E94B626CE01DF91CB
:1034C000CF911F910F91FF900895FF920F931F933B
:1034D000CF93DF93EC018B01FB01F0800E94AE26BD
:1034E000F81621F06F2DCE010E94B626F801F1806A
:1034F0002196CE010E94AE26F81621F06F2DCE0146
:103500000E94B626C801DF91CF911F910F91FF90C5
:103510000895CF938CEB92E090933802809337021A
:1035200067E372E090E080E00E94651A6AE070E074
:1035300080E090E00E94A81088E592E09093360227
:103540008093350265E372E084E190E00E94651AA1
:103550006AE070E080E090E00E94A81084EF91E0C3
:10356000909334028093330263E372E088E290E048
:103570000E94651A6AE070E080E090E00E94A81066
:1035800087E08093400260E472E08CE390E00E9468
:103590004E1A6AE070E080E090E00E94A810CEE150
:1035A000C0933D026DE372E08DE390E00E944E1AFD
:1035B0006AE070E080E090E00E94A8108FE08093C5
:1035C0003C026CE372E08EE390E00E944E1A6AE0E7
:1035D00070E080E090E00E94A810C0933B026BE393
:1035E00072E08FE390E00E944E1A6AE070E080E0A3
:1035F00090E00E94A81087E180933A026AE372E0AB
:1036000080E490E00E944E1A6AE070E080E090E072
:103610000E94A810C093390269E372E081E490E04F
:103620000E944E1A8DEB9CE00E94510FCF910C949A
:10363000C6192F923F924F925F926F927F928F9214
:103640009F92AF92BF92CF92DF92EF92FF920F9331
:103650001F93CF93DF93CDB7DEB761970FB6F89482
:10366000DEBF0FBECDBF48E0442E512C22242A9449
:10367000312C86E393E00E94C20E892B09F004C32B
:1036800000913102109132020115110509F05CC15F
:103690008FEE92E00E94F00D80913E0290913F02E9
:1036A0002AE0289FB001299F700D112464577E4F96
:1036B000CE0109960E945F1981E090E09093FF038C
:1036C0008093FE03E984FA84F70181917F018823C6
:1036D00049F022E030E04AE050E061E070E00E9412
:1036E0001411F2CF1A8219821C821B821E821D8243
:1036F00069857A856115710531F04D855E85CE014C
:1037000001960E942019C980DA807601F6010190A5
:103710000020E9F73197EC19FD09C7018C199D09C3
:103720008E179F0788F4F70181917F010E94370C63
:10373000E091F503F091F603E80FF91FE491F0E052
:1037400031960E0F1F1FE2CF015011091093FF0396
:103750000093FE03F60101900020E9F79F0121503C
:1037600031093901C614D70409F49EC0F30112913E
:103770003F01812F0E94370C5C0180E8810F0E947D
:10378000370C4C018091F5039091F603FC01EA0D92
:10379000FB1DE490880D991DFC018491F12C209172
:1037A000FC033091FD038091FE039091FF03E1142F
:1037B000F10409F457C001E042E050E061E070E03C
:1037C00001970E94A20C85010E0D1F1D8091F70329
:1037D000E091F503F091F6036091FE037091FF0311
:1037E0008823A1F194012E0D3F1DE20FF31F2491B8
:1037F00041E050E08CEF93E00E94DB10E091F50394
:10380000F091F603E00FF11F24916091FE03709197
:10381000FF03CB0101979093FF038093FE0349E0E0
:1038200050E08CEF93E00E94DB108091FE039091BA
:10383000FF038034910534F462E070E080E090E0B2
:103840000E94A810F1E0EF1AF108A9CFE00FF11FD4
:103850002491CB0101979093FF038093FE0341E0F5
:1038600050E0DFCF97FD0CC0409186045091870453
:10387000841795072CF4A90161E070E00E94520CB6
:103880008091FE039091FF0301979093FF03809333
:10389000FE03803491050CF065CF62E070E080E0BB
:1038A00090E00E94A8105ECFCE0101960E941819E8
:1038B000CE0109960E94181968E873E180E090E053
:1038C0000E94A81000E110E040E150E060E470E0E8
:1038D00090E080E00E941E0B809188049091890402
:1038E0001816190634F460E470E090E080E00E945D
:1038F0008C0A64E170E080E090E00E94A810015022
:10390000110911F781E090E0909332028093310227
:103910000E944D1880913E0290913F0281309105A6
:1039200009F4A0C18230910509F4A5C1892B09F0E1
:10393000A0CE6091BB027091BC0280913702909141
:1039400038020E94001595CE80EF99E00E94F00D9C
:10395000C090EB03D090EC030E9412178091EB0310
:103960000E94BB17BC01CE0101960E94632968EF3B
:1039700071E0CE0103960E9463298091EC030E94BE
:10398000BB17BC01CE0104960E946329BE016F5F84
:103990007F4FCE0109960E945F1945E350E069E030
:1039A00070E0CE0109960E94FA11CE0109960E949C
:1039B000181935E0E32EF12C60E971E080E090E029
:1039C0000E94A81000E02CE030E042E050E070E0FF
:1039D00060E08FE190E00E94A20C68E572E080E078
:1039E00090E00E94A81068EF71E0CE0109960E9455
:1039F0005F198FE190E09093FF038093FE030985A8
:103A00001A85F80181918F01882349F030E020E088
:103A100050E040E070E060E00E941411F2CFCE016F
:103A200009960E9418190E9412171091EC03D116E2
:103A300009F47DC0812F0E94BB17BC01CE010F96F7
:103A40000E9463298091EC030E94BB17BC01CE0148
:103A500004960E946329BE01615F7F4FCE010996E3
:103A60000E945F1945E150E062E270E0CE010996E4
:103A70000E94FA11CE0109960E941819F1E0EF1A7E
:103A8000F108D12E09F098CF64EF71E080E090E06A
:103A90000E94A81000E410E0409186045091870431
:103AA00080E490E0403451050CF4CA012091880470
:103AB00030918904203131050CF064C012161306D0
:103AC0000CF0C1C0141615060CF0BDC08230910573
:103AD0000CF4B9C040918A04429FB001439F700D1D
:103AE0001124893091050CF050C09201281B390B2C
:103AF000A10101C0440F2A95EAF7A42F30E020E08D
:103B00002617370708F09FC0E0918204F0918304E4
:103B1000E20FF31F90818A2F8923869589278423BA
:103B20008927808380918A04280F311DE9CF009175
:103B3000EB03C01609F4A2CF812F0E94BB17BC0172
:103B4000CE010F960E9463298091EC030E94BB175F
:103B5000BC01CE0101960E946329BE01615F7F4FC7
:103B6000CE0109960E945F1945E150E069E070E0DE
:103B7000CE0109960E94FA11CE0109960E941819E9
:103B8000C02E7CCF20E130E09DCFAC0123E05595E5
:103B900047952A95E1F787709927F201E81BF90B01
:103BA000CF01922D01C0990F8A95EAF7911103C0B8
:103BB000415051099FEF30E020E02617370708F009
:103BC00042C0A0918204B0918304A20FB31FEC9174
:103BD000FE2EF794FF24F794F0E0F595E795EC932B
:103BE00042305105C8F081E0E82FF0E0A091820456
:103BF000B0918304E417F50778F4E20FF31FEA0F9E
:103C0000FB1FB081AB2FA695FA2AF0828F5FFB2EA7
:103C1000F794FF24F794E8CFF901E40FF51FA09182
:103C20008204B0918304EA0FFB1FA0818A2F8923AD
:103C300086958A2789238A278F29808380918A0401
:103C4000280F311DBACF65E070E080E090E00E945F
:103C5000A8100150110909F01FCF109232021092E2
:103C6000310256CE6091BB027091BC028091350248
:103C70009091360266CE6091BB027091BC02809139
:103C80003302909134025DCE86E393E00E94A00E51
:103C9000182F082E000C990B0E949226892B09F0F0
:103CA000E8CC812F61960FB6F894DEBF0FBECDBF72
:103CB000DF91CF911F910F91FF90EF90DF90CF9008
:103CC000BF90AF909F908F907F906F905F904F903C
:103CD0003F902F900895CF93DF9300D01F92CDB7E0
:103CE000DEB78091FA019091FB01A091FC018983DC
:103CF0009A83AB830E94191B89830E94191B8A83B4
:103D0000CE0101960E9447260F900F900F90DF91F1
:103D1000CF9108951F920F920FB60F9211242F93F7
:103D20003F934F935F936F937F938F939F93AF9343
:103D3000BF93EF93FF9386E393E00E94E20EFF911F
:103D4000EF91BF91AF919F918F917F916F915F9113
:103D50004F913F912F910F900FBE0F901F9018958C
:103D60001F920F920FB60F9211242F938F939F9350
:103D7000EF93FF93E0914603F09147038081E09138
:103D80004C03F0914D0382FD1BC0908180914F0345
:103D90008F5F8F7320915003821741F0E0914F03A2
:103DA000F0E0EA5CFC4F958F80934F03FF91EF9119
:103DB0009F918F912F910F900FBE0F901F9018958C
:103DC0008081F4CF1F920F920FB60F9211242F9380
:103DD0003F938F939F93AF93BF938091860290916F
:103DE0008702A0918802B09189023091850223E078
:103DF000230F2D3758F50196A11DB11D2093850283
:103E00008093860290938702A0938802B0938902E0
:103E100080918A0290918B02A0918C02B0918D02C8
:103E20000196A11DB11D80938A0290938B02A093ED
:103E30008C02B0938D02BF91AF919F918F913F9172
:103E40002F910F900FBE0F901F90189526E8230F0B
:103E50000296A11DB11DD2CF1F920F920FB60F92E5
:103E600011242F933F934F935F936F937F938F937F
:103E70009F93AF93BF93EF93FF938091950281112E
:103E80000FC0109292021092910210929002109222
:103E90008F02109294021092930281E08093950217
:103EA000E0918F02F09190020995FF91EF91BF91FF
:103EB000AF919F918F917F916F915F914F913F91C2
:103EC0002F910F900FBE0F901F9018951F920F9279
:103ED0000FB60F9211242F933F934F935F936F93DD
:103EE0007F938F939F93AF93BF93EF93FF93E09153
:103EF0008001F09181010995FF91EF91BF91AF9100
:103F00009F918F917F916F915F914F913F912F91F1
:103F10000F900FBE0F901F9018951F920F920FB623
:103F20000F9211242F933F934F935F936F937F933F
:103F30008F939F93AF93BF93EF93FF938091B900BB
:103F4000887F803609F44AC0F0F5883209F4A7C0AA
:103F500018F5803109F49BC0B8F4882309F4F9C03E
:103F6000883009F494C0FF91EF91BF91AF919F9178
:103F70008F917F916F915F914F913F912F910F9012
:103F80000FBE0F901F901895883109F488C08032B9
:103F900051F780930C0314C0803409F49DC040F4A1
:103FA0008033B9F38833F9F680930C0385ECB0C005
:103FB000803509F485C0883509F496C0883499F6AF
:103FC0000E947019D0CF883909F48CC038F5883731
:103FD00029F050F4883611F0803729F683E0809379
:103FE0000E031092840257C0883809F47BC08039D0
:103FF00019F0803809F0B7CF80918402803208F040
:1040000071C0E091840281E08E0F809384028091E0
:10401000BB00F0E0EC59FD4F80833DC0803B39F0A0
:10402000E0F4803A09F479C0883A09F09CCF84E042
:1040300080930E031092630210926202E091D30308
:10404000F091D40309958091620281110FC081E043
:10405000809362021092420209C0803C09F4A6CF0C
:10406000883C09F4A3CF883B09F07DCFE09163023F
:1040700081E08E0F80936302F0E0EE5BFD4F808164
:104080008093BB00909163028091620229C080916D
:10409000E9028093BB0085EC8093BC0064CF9091D3
:1040A0000B0380910A03981758F5E0910B0381E008
:1040B0008E0F80930B03F0E0E651FD4F8081E9CF36
:1040C000E0910B0381E08E0F80930B038091BB0086
:1040D000F0E0E651FD4F808390910B0380910A033D
:1040E0009817C8F285E8D8CFE0910B0381E08E0FD6
:1040F00080930B038091BB00F0E0E651FD4F80837D
:1041000080910D0381115CCF81E08093E80284EA05
:104110008093BC0010920E0326CF85EC8093BC00E8
:1041200010920E0380918402803230F4E091840278
:10413000F0E0EC59FD4F10826091840270E0E09154
:10414000D503F091D60384E692E00995109284029B
:104150000ACF10920C0334CFE6E3F3E0138212820D
:1041600088EE93E0A0E0B0E084839583A683B783D4
:1041700020ED31E03183208325EC30E03587248742
:1041800024EC30E03787268720EC30E0318B208B21
:1041900021EC30E0338B228B22EC30E0358B248B0A
:1041A00026EC30E0378B268B118E128E138E148EF8
:1041B000EBEDF3E01382128284839583A683B783A9
:1041C00082EE91E091838083E7EEF3E0118210822A
:1041D0001282138214821582168217821286118629
:1041E0001486138684E185871092DA031092D9032E
:1041F0001092D8031092D7030E94141380E59AE01E
:104200009093D4038093D30381E59AE09093D603EF
:104210008093D503E2E8F4E080E490E09583848322
:1042200080E190E09783868388E0808780E890E053
:104230009383828382E094E091838083E5EFF3E0CF
:10424000128611861486138681E29FE00C94F00D8D
:10425000CF93DF9300D0CDB7DEB7789484B582607A
:1042600084BD84B5816084BD85B5826085BD85B51A
:10427000816085BD80916E00816080936E00109298
:104280008100809181008260809381008091810013
:1042900081608093810080918000816080938000A4
:1042A0008091B10084608093B1008091B000816002
:1042B0008093B00080917A00846080937A0080912E
:1042C0007A00826080937A0080917A008160809386
:1042D0007A0080917A00806880937A001092C10001
:1042E0001092DA031092D9031092D8031092D703D8
:1042F0000E94141380E59AE09093D4038093D30333
:1043000081E59AE09093D6038093D503E09146032C
:10431000F091470382E08083E0914203F0914303F0
:104320001082E0914403F091450383E3808310926F
:104330004E03E0914A03F0914B0386E08083E091C5
:104340004803F0914903808180618083E0914803B4
:10435000F0914903808188608083E0914803F09167
:104360004903808180688083E0914803F09149038C
:1043700080818F7D808362E088E00E94521062E03D
:104380008CE00E9452100E94CC14BE016F5F7F4FE0
:1043900090E080E00E94B21989819A81892B09F00E
:1043A00015C18DE29EE00E94510F90E080E00E94D6
:1043B000EF1589E29EE00E94510F89819A810E9447
:1043C000EF150E94891A82E094E090938C04809308
:1043D0008B0480E490E090938E0480938D0480E1C0
:1043E00090E09093900480938F048AB18C6F8AB987
:1043F0008091B100887F81608093B1001FB7F894ED
:1044000080918E02811127C0E4E7FEE08491E0E60E
:10441000FEE09491E82FF0E0EE0FFF1FE45BF14F18
:10442000A591B491EC91E92321F461E08AE00E9426
:10443000DE0F61E08AE00E9452108CB580618CBD75
:104440008CB580648CBD61E08DE00E94521061E00B
:104450008BE00E94521080918E028F5F80938E02BB
:104460001FBF61E083E00E94521080E890E00E944C
:104470000C1080E1809381001092800080E099E12F
:10448000909387008093860081E18093810088E289
:1044900095E1909381018093800181E080936F008A
:1044A0009091950291110EC0109292021092910279
:1044B0001092900210928F02109294021092930226
:1044C000809395028091910290919202892B41F5FF
:1044D0001092B0001092B1008091B0008160809382
:1044E000B0008091B0008D7F8093B0008091B100CA
:1044F00088608093B10083E090E090939402809371
:10450000930288EC8093B30084EA98E19093900240
:1045100080938F0281E090E09093920280939102C9
:104520008091950281110FC0109292021092910217
:104530001092900210928F021092940210929302A5
:1045400081E08093950280919102909192028D7FFB
:10455000019701F51092B2009091B1008091930201
:104560008770987F892B8093B10080918F02909102
:104570009002892B49F08091B2008823E1F3809169
:10458000700081608093700082E090E090939202CE
:10459000809391020E944D1861E083E00E945210C6
:1045A0008FE990E00E940C1090E080E0209184045C
:1045B0003091850482179307E0F4E0918204F09132
:1045C0008304E80FF91F10820196F0CF87E09EE088
:1045D0000E94510F90E080E00E94EF1585E09EE080
:1045E0000E94510F89819A810E94EF150E94C6197D
:1045F000EACE809186049091870418161906F4F586
:10460000209188043091890412161306BCF540915C
:104610008A0450E08034910514F048E050E02031E5
:10462000310514F020E130E0A0E0B1E090E080E05E
:104630007D0170E060E046175707D9F010918A04B9
:10464000189FF001199FF00D11248F01060F171FFD
:10465000E0918204F09183046F01C00ED11EF70136
:1046600001917F01F6011081102B10836F5F7F4F46
:10467000E2CF0196189682179307D0F260ED77E0AB
:1046800080E090E00E94A81000ED17E0A0E44A2E20
:10469000512C612C712CB0E18B2E912CA12CB12CC2
:1046A00080E8282E312C0E94EF25A30192010E9460
:1046B000C4266B010E94EF25A50194010E94C42627
:1046C00020918D0430918E04269FA001279F500DCC
:1046D000369F500D1124CA01E3E096958795EA951F
:1046E000E1F79601F3E036952795FA95E1F7820F09
:1046F000931FE0918B04F0918C04E80FF91F8C2D2F
:104700008770910102C0359527958A95E2F78081DF
:10471000822B808361E070E080E090E00E94A8102E
:104720000150110909F0BFCF10E000E07FE3E72E50
:10473000F12CC8010E94210EC701801B910B0E9421
:10474000210E6AE070E080E090E00E94A8100F5F08
:104750001F4F0032110569F72CEC622E21E0722EFA
:1047600030ECA32E31E0B32E40E1C42E47E2D42E2C
:1047700004E652EE252E52E0352E60E0462E60E033
:10478000562E1AE08BE09FE00E94510F0E94191BE9
:10479000F82E082E000C990B0E94522985349105A1
:1047A00009F4A8C1ECF48F33910539F183349105F4
:1047B00009F41DC18AEF9EE00E94510F6F2D86E320
:1047C00093E00E94040F88EF9EE00E94510F86E361
:1047D00093E00E94C20E892B91F00E94191BF7CF23
:1047E0008335910509F441C184359105A1F08934DF
:1047F000910501F70E94891A02C00E94CC1441144D
:10480000510409F4BFCF0E94CE0E882309F4B9CF1A
:104810000E940000B6CF0E94191BF82E082E000C33
:10482000990B0E9452298235910509F4D4C087352D
:10483000910509F0BFCF0E946B1EF82E0E946B1EDF
:1048400090E0F09E800D911D11249093E8038093D9
:10485000E7030E946B1E8093E9030E946B1E809306
:10486000EA030E946B1E8093EB030E946B1E8093F1
:10487000EC030E946B1E8093ED030E946B1E8093DD
:10488000EE0361E082E00E941F168091E00221E0C9
:1048900030E086FD02C022E030E0F10186E01192B6
:1048A0008A95E9F74091ED03842F612F0E945E27DE
:1048B000982F880F890F880F840F8093E002409112
:1048C000EC03842F0E945E27982F880F890F880F92
:1048D000840F8093E1024091EB032130310509F010
:1048E0007DC04D3030F04C504093EB0381E080931D
:1048F000EF032091EB03822F612F0E945E27982FF8
:10490000880F890F880F820F8093E2029091EF0346
:10491000992319F080628093E2028091E202806420
:104920008093E2022091EE03822F612F0E945E2786
:10493000982F880F890F880F820F8093E3022091B0
:10494000EA03822F0E945E27982F880F890F880F15
:10495000820F8093E4022091E903822F0E945E2758
:10496000982F880F890F880F820F8093E50240915E
:10497000E7035091E8039A01205D37402536310561
:1049800028F080688093E50224563109822F612F38
:104990000E945E27982F880F890F880F820F8093BF
:1049A000E60281E080931403E8E6E0933503109279
:1049B000D8031092D70360E08BED93E00E949A1425
:1049C00047E050E060EE72E08BED93E00E946D14E2
:1049D00081E00E9453130E94CC1711CF842F0E94B4
:1049E0005E27982F880F890F880F840F99CF0E9418
:1049F000191BF82E082E000C990B0E9452298534A1
:104A0000910539F08235910509F0D4CE0E943A180B
:104A1000F6CE0E946B1EF82E0E946B1EFC9C90012D
:104A2000FD9C300D11247901809FE00CF11C1124B4
:104A30000E946B1E8E0D9F2D911D9093BC02809342
:104A4000BB024AE061EB72E00E94652680E89EE0CE
:104A50000E94510F8091BB029091BC020E94EF1501
:104A60008EE79EE00E94510FCACE0E94191BF82EBD
:104A7000082E000C990B0E94522983359105E9F10B
:104A80008435910509F096CE9AEB892E91E0992E06
:104A90000E946B1EF82E0E946B1EFC9C9001FD9CD8
:104AA000300D11247901809FE00CF11C11240E942B
:104AB0006B1E8E0D9F2D911D9A838983F401E190C9
:104AC000F1904F01BE016F5F7F4FC7010E94651AD1
:104AD00083EA9EE00E94510F89819A810E94EF151E
:104AE00082E99EE00E94510FC7010E94EF15A814B1
:104AF000B90471F60E94C61982CE80ECE82E81E0DE
:104B0000F82E0E946B1E90E09A838983F7018190B2
:104B100091907F01BE016F5F7F4FC4010E94651AB3
:104B200084ED9EE00E94510F89819A810E94EF15C9
:104B300083EC9EE00E94510FC4010E94EF156E1499
:104B40007F04F9F6D7CF8F929F92AF92BF92CF9208
:104B5000DF92EF92FF92CF93DF93EC01688179812E
:104B60008A819B81611571058105910521F464E2BB
:104B700079ED8BE597E02DE133EF41E050E00E94C5
:104B8000C42649015A019B01AC01A7EAB1E40E9485
:104B9000E3266B017C01ACEEB4EFA50194010E9409
:104BA000F126C60ED71EE81EF91EF7FE06C081E0EC
:104BB000C81AD108E10880E8F80AC882D982EA82D6
:104BC000FB82C701B6019F77DF91CF91FF90EF90F5
:104BD000DF90CF90BF90AF909F908F9008958F926D
:104BE0009F92AF92BF92CF92DF92EF92FF9260912D
:104BF00082017091830180918401909185016115FA
:104C000071058105910521F464E279ED8BE597E06A
:104C10002DE133EF41E050E00E94C42649015A01E2
:104C20009B01AC01A7EAB1E40E94E3266B017C0181
:104C3000ACEEB4EFA50194010E94F126C60ED71E7A
:104C4000E81EF91EF7FE06C081E0C81AD108E10887
:104C500080E8F80AC0928201D0928301E092840138
:104C6000F0928501C701B6019F77FF90EF90DF902A
:104C7000CF90BF90AF909F908F90089560938201E6
:104C80007093830180938401909385010895FC01C2
:104C900088279927E89421912032E9F3293010F0F0
:104CA0002E30C8F32B3241F02D3239F4689404C011
:104CB0000E947026820F911D219120532A30C0F34B
:104CC0001EF4909581959F4F0895BB274A3031F48B
:104CD000992322F4BDE2909581959F4F0C947926FB
:104CE0007AE0979F902D879F802D910D1124089534
:104CF000BB27FB015527AA27880F991FAA1FA417B6
:104D000010F0A41B83955051B9F7A05DAA3308F0A9
:104D1000A95DA193009779F7B111B1931192CB01DD
:104D20000C949B2691110C94AB26803219F089507B
:104D30008550C8F70895DC01FC01672F7191772336
:104D4000E1F7329704C07C916D9370836291AE1746
:104D5000BF07C8F30895992788270895F999FECFCA
:104D600092BD81BDF89A992780B50895262FF999AB
:104D7000FECF1FBA92BD81BD20BD0FB6F894FA9A3E
:104D8000F99A0FBE01960895052E97FB1EF4009424
:104D90000E94DB2657FD07D00E942D2707FC03D079
:104DA0004EF40C94DB2650954095309521953F4F5D
:104DB0004F4F5F4F089590958095709561957F4F07
:104DC0008F4F9F4F08950E944F27A59F900DB49F2E
:104DD000900DA49F800D911D11240895B7FF0C9490
:104DE000E3260E94E326821B930B08952F923F92A5
:104DF0004F925F926F927F928F929F92AF92BF92EB
:104E0000CF92DF92EF92FF920F931F93CF93DF9396
:104E1000CDB7DEB7CA1BDB0B0FB6F894DEBF0FBEF3
:104E2000CDBF09942A88398848885F846E847D8440
:104E30008C849B84AA84B984C884DF80EE80FD8042
:104E40000C811B81AA81B981CE0FD11D0FB6F894B8
:104E5000DEBF0FBECDBFED010895A1E21A2EAA1B41
:104E6000BB1BFD010DC0AA1FBB1FEE1FFF1FA2171A
:104E7000B307E407F50720F0A21BB30BE40BF50B17
:104E8000661F771F881F991F1A9469F760957095A0
:104E9000809590959B01AC01BD01CF010895A29F23
:104EA000B001B39FC001A39F700D811D1124911DFE
:104EB000B29F700D811D1124911D0895991B79E0F9
:104EC00004C0991F961708F0961B881F7A95C9F79A
:104ED00080950895EE0FFF1F0590F491E02D099441
:104EE0000F931F93CF93DF938230910510F482E0EC
:104EF00090E0E0919304F091940430E020E0B0E081
:104F0000A0E0309799F42115310509F44AC0281B17
:104F1000390B24303105D8F58A819B8161157105E3
:104F200089F1FB0193838283FE0111C0408151818D
:104F30000281138148175907E0F04817590799F47F
:104F4000109761F012960C93129713961C93329659
:104F5000CF01DF91CF911F910F910895009393049A
:104F600010939404F4CF2115310551F042175307E3
:104F700038F0A901DB019A01BD01DF01F801C1CFC1
:104F8000EF01F9CF9093940480939304CDCFFE0169
:104F9000E20FF31F819391932250310939832883C3
:104FA000D7CF2091910430919204232B41F420918A
:104FB00088013091890130939204209391042091CB
:104FC0008601309187012115310541F42DB73EB797
:104FD00040918A0150918B01241B350BE091910483
:104FE000F0919204E217F307A0F42E1B3F0B281751
:104FF000390778F0AC014E5F5F4F2417350748F052
:105000004E0F5F1F509392044093910481939193AC
:105010009FCFF0E0E0E09CCFCF93DF930097E9F0E3
:10502000FC01329713821282A0919304B0919404F0
:10503000ED0130E020E01097A1F420813181820F52
:10504000931F20919104309192042817390709F099
:1050500061C0F0939204E0939104DF91CF910895A1
:10506000EA01CE17DF07E8F54A815B819E01411511
:105070005105B1F7E901FB83EA8349915991C40FC6
:10508000D51FEC17FD0761F4808191810296840F92
:10509000951FE90199838883828193819B838A8309
:1050A000F0E0E0E012968D919C9113970097B9F58E
:1050B0002D913C911197CD010296820F931F209163
:1050C0009104309192042817390739F6309751F539
:1050D0001092940410929304B0939204A0939104BC
:1050E000BCCFD383C28340815181840F951FC817E1
:1050F000D90761F44E5F5F4F88819981480F591F2E
:10510000518340838A819B8193838283211531055A
:1051100009F0B0CFF0939404E09393049ECFFD0187
:10512000DC01C0CF13821282D7CFB0E0A0E0EBE960
:10513000F8E20C94F8268C01009751F4CB010E9400
:1051400070278C01C801CDB7DEB7E0E10C941427BD
:10515000FC01E60FF71F9C0122503109E217F3070B
:1051600008F49DC0D901CD91DC911197C617D707DE
:1051700098F0C530D10530F3CE0104978617970714
:1051800008F3C61BD70B2297C193D1936D937C93E1
:10519000CF010E940C28D6CF5B01AC1ABD0A4C018E
:1051A0008C0E9D1EA0919304B0919404512C412C1F
:1051B000F12CE12C109731F580919104909192049B
:1051C0008815990509F05CC04616570608F058C0C6
:1051D0008091860190918701009741F48DB79EB729
:1051E00040918A0150918B01841B950BE817F907B8
:1051F00008F055C0F0939204E0939104F901718393
:105200006083A0CF8D919C91119712966C9012970C
:1052100013967C901397A815B90559F56C0142E0D7
:10522000C40ED11CCA14DB0420F1AC014A195B097D
:10523000DA011296159780F062827382518340835F
:10524000D9016D937C93E114F10471F0D7011396A9
:10525000FC93EE93129776CF22968C0F9D1FF90147
:1052600091838083F301EFCFF0939404E093930450
:1052700069CF4816590608F42C017D01D3019ACF55
:10528000CB010E9470277C01009749F0AE01B80164
:105290000E945A29C8010E940C28870153CF10E0B0
:1052A00000E050CF9111089581568A5108F4805240
:1052B00085580895FB01DC0102C001900D92415018
:1052C0005040D8F70895FB01DC0101900D920020B9
:0852D000E1F70895F894FFCF07
:1052D800FFFFFFFFFFFFFFFFC00100047F0E3F87B6
:1052E800C00100043F0E1F87C7F11FC41F8E0FC7E0
:1052F800C7F11FC40F8E07C7C0711FC4078E03C72D
:10530800C0011FC4038E01C7C0011FC4018E00C79E
:10531800C41F1FC4408E2047C60F1FC4604E3027CD
:10532800C7070FC4702E3817C78307C4781E3C0FF1
:10533800C7C183C47C0E3E07C7E0C0047E063F0396
:10534800C7F060047F023F81FFFFFFFFFFFFFFFF01
:10535800EB12010000000000950480005348494604
:1053680054203100000053484946542032000000C0
:1053780053484946542033000000FD010202070249
:105388000C02110216021B02200200001400280061
:105398003C003D003E003F0040004100000000008E
:1053A800040F640E910E6C0FC20EA00EB40E000016
:1053B80000009A146D14C914431466145314441449
:1053C80020706D0020616D003A00303000202D2DD6
:1053D8002D002053756E00204D6F6E0020547565AA
:1053E80000205765640020546875002046726900E3
:0653F80020536174000067
:00000001FF
