:020000040000FA
:100000000C94260A0C944E0A0C944E0A0C944E0A38
:100010000C944E0A0C944E0A0C944E0A0C944E0A00
:100020000C944E0A0C94C11F0C944E0A0C944E0A68
:100030000C944E0A0C94FB1F0C944E0A0C944E0A1E
:100040000C94771F0C944E0A0C94451F0C941F1FA0
:100050000C944E0A0C944E0A0C944E0A0C944E0AC0
:100060000C9422200C944E0A0A436F756E746572CC
:10007000203A20000A73732068686D6D2068686DEF
:100080006D2068686D6D203D3D3D3D3D3D3D3D2011
:100090007365742073686966742074696D65000AFD
:1000A0007374206161616161612062626262626297
:1000B00020636363636363203D3D20736574207434
:1000C000617267657420666F722065616368207372
:1000D00068696674000A6372203D3D3D3D3D3D3DCB
:1000E0003D3D3D3D3D3D3D3D3D3D3D3D3D3D3D3D40
:1000F00020726573657420636F756E746572207409
:100100006F20302E000A6365206E6E6E6E6E6E205C
:100110003D3D3D3D3D3D3D3D3D3D3D3D3D3D3D3D0F
:10012000206564697420636F756E746572207661F2
:100130006C7565000A65203D3D3D3D3D3D3D3D3DC5
:100140003D3D3D3D3D3D3D3D3D3D3D3D3D3D3D20FC
:1001500067657420656570726F6D206461746100FD
:100160000A69203D3D3D3D3D3D3D3D3D3D3D3D3DE3
:100170003D3D3D3D3D3D3D3D3D3D3D20696E69740C
:1001800020616C6C2064617461000A7472203D3DD2
:100190003D3D3D3D3D3D3D3D3D3D3D3D3D3D3D3D8F
:1001A0003D3D3D3D3D20726561642074686520637E
:1001B000757272656E742074696D65000A747720BB
:1001C000797979796D6D64642068686D6D737320D9
:1001D0006477203D3D3D3D207772697465207468E9
:1001E000652063757272656E7420646174652C207D
:1001F00074696D6520616E6420646179206F66208A
:100200007765656B2028312D3729000A3F203D3D59
:100210003D3D3D3D3D3D3D3D3D3D3D3D3D3D3D3D0E
:100220003D3D3D3D3D3D2068656C70202D2074684E
:100230006973206D657373616765000A202A2A2A35
:100240002A2A2A2A2A2A2A2A2A2A2A2A2A2A2A2A0E
:100250002A2A2A2A2A2A2A2A2A2A2A2A2A2A2A2AFE
:100260002A2A2A2A2A2A2A2A2A2A2A2A2A2A2A2AEE
:100270002A2A2A2A2A2F000A202A205B584A582094
:1002800054454348207C20303835362039343339C2
:100290002039343439207C20616775736261736161
:1002A0007269323940676D61696C2E636F6D5D20D4
:1002B0002A000A2F2A2A2A2A2A2A2A2A2A2A2A2AE3
:1002C0002A2A2A2A2A2A2A2A2A2A2A2A2A2A2A2A8E
:1002D0002A2A2A2A2A2A2A2A2A2A2A2A2A2A2A2A7E
:1002E0002A2A2A2A2A2A2A2A2A2A2A2A000A0054B8
:1002F0000100FF10000000000000000000000000EE
:1003000000000000000000000000000000000000ED
:1003100000000000020000000000000000000000DB
:1003200000000000023030000A3E7FC0C0C0C0C0E4
:10033000C07F3E0A00000000000000007F3E0A3E31
:100340007FC1C1C1C1C1C140000A0041C1C1C1C119
:10035000C1C17F3E0A00000101010101017F3E0A87
:100360000040C1C1C1C1C1C17F3E0A3E7FC1C1C100
:10037000C1C1C17F3E0A00000000000000007F3EB6
:100380000A3E7FC1C1C1C1C1C17F3E0A0040C1C197
:10039000C1C1C1C17F3E0206060000000000000A84
:1003A0003E7F0101010101017F3E0A3E7FC1C1C1C3
:1003B000C1C1C17F3E0A3E7FC1C1C1C1C1C14100AF
:1003C0000A3E7FC1C1C1C1C1C17F3E0A3E7FC1C1DA
:1003D000C1C1C1C141000A3E7F010101010101010A
:1003E000000000000000000000000000000000000D
:1003F00000000000000000000000000A3E7F010134
:10040000010101017F3E0A3E7FC1C1C1C1C1C17F5F
:100410003E0A3E7FC1C1C1C1C1C141000A3E7FC188
:10042000C1C1C1C1C17F3E0A3E7FC1C1C1C1C1C1FD
:1004300041000A3E7F0101010101010100000000AD
:1004400000000000000000000000000000000000AC
:10045000000002FFFF00000000000000000000009C
:10046000000000000000000000000000000000008C
:10047000000000000000000002000000000000007A
:100480000000000000000000020000000A7CFE03E3
:100490000303030303FE7C0A0000000000000000C9
:1004A000FE7C0A0002838383838383FE7C0A0082AE
:1004B000838383838383FE7C0A7CFE8080808080AC
:1004C00080FE7C0A7CFE83838383838302000A7C14
:1004D000FE83838383838302000A000203030303F2
:1004E0000303FE7C0A7CFE838383838383FE7C0A72
:1004F0007CFE838383838383FE7C02606000000034
:100500000000000A7CFE838383838383FE7C0A7C55
:10051000FE80808080808000000A000080808080D3
:10052000808000000A0000808080808080FE7C0A3D
:100530007CFE83838383838382000A7CFE838383A0
:1005400083838382000000000000000000000000A0
:100550000000000000000000000000000000000A91
:100560007CFE838383838383FE7C0A7CFE80808081
:1005700080808000000A00008080808080800000F1
:100580000A0000808080808080FE7C0A7CFE83835D
:100590008383838382000A7CFE83838383838382B5
:1005A000000000000000000000000000000000004B
:1005B00000000000000002FFFF000000540100FFE7
:1005C000100000000000000000000000000000001B
:1005D000000000000000000000000000000000001B
:1005E0000004000000000233330600000000000099
:1005F0000A03033F3F03033F3F03030A1838303029
:100600007F7F30391F0F08303C0F03182424180A4D
:100610000F1F3930303B1F0E3F3302000005030F20
:100620001C38300530381C0F030A060707011F1F4E
:10063000010307060A000000000F0F00000000027F
:10064000B070090000000000000000000230300817
:10065000303C0F03000000000A0F1F3930303030EB
:10066000381F0F0500303F3F300A3F3F31303030F8
:10067000303030300A0C1C3830303030381F0F0A20
:10068000030303030303033F3F030A0C1C3830300A
:100690003030381F0F0A0F1F3830303030381F0FFE
:1006A0000A0000003F3F00000000000A0F1F393021
:1006B000303030391F0F0A00000000000000003FFA
:1006C0003F02181802583808000103070E1C383082
:1006D000090606060606060606060830381C0E073A
:1006E0000301000A000000003737010000000A0F74
:1006F0001F38333636333637130A3F3F01010101C5
:1007000001013F3F0A3F3F3030303030391F0F0A80
:100710000F1F3830303030381C0C0A3F3F3030303B
:100720003030381F0F093F3F303030303030300923
:100730003F3F000000000000000A0F1F383030303B
:1007400031391F0F0A3F3F0000000000003F3F0407
:10075000303F3F30080C1C383030381F0F093F3F06
:100760000103070E1C3830093F3F30303030303045
:10077000300A3F3F0000000000003F3F0A3F3F00BB
:1007800000000001033F3F0A0F1F3830303030387F
:100790001F0F0A3F3F00000000000000000A0F1F6B
:1007A000383030363E1C3F370A3F3F000103070E0A
:1007B0001C38300A18383030303030391F0F0800FC
:1007C00000003F3F0000000A0F1F38303030303843
:1007D0001F0F0A03070E1C38381C0E07030A0F1FD1
:1007E000383C1F1F3C381F0F0A3C3E070301010322
:1007F000073E3C0A000000003F3F000000000A3CAA
:100800003E3733313030303030043F3F3030080035
:10081000000000030F3C300430303F3F0800000070
:1008200000000000000AC0C0C0C0C0C0C0C0C0C03E
:10083000030000000A0F1F3830303030303F3F0ACD
:100840003F3F3030303030381F0F090F1F38303005
:10085000303030300A0F1F3830303030303F3F09F1
:100860000F1F3B33333333333307003F3F00000068
:100870000009C3C7CECCCCCCEC7F3F093F3F000082
:100880000000003F3F023F3F0860E0C0C0C0E07F83
:100890003F083F3F03070F1C383004003F3F300A3A
:1008A0003F3F00003F3F00003F3F093F3F00000047
:1008B00000003F3F090F1F38303030381F0F09FF4D
:1008C000FF0C0C0C0C0E07030903070E0C0C0C0C90
:1008D000FFFF093F3F0000000000000009303133F6
:1008E000333333331E0C06001F3F303010090F1F07
:1008F00038303030303F3F09070F1C3830381C0F7C
:10090000070A0F1F38381F1F38381F0F0A30381CCE
:100910000F07070F1C383009C1C3C7C6C6C6E67F1C
:100920003F0A30383C3E3733313030300600010F5B
:100930001F383002FFFF0630381F0F010000000093
:1009400000000000000000000000000000000000A7
:100950000000000000000000000000000000000493
:100960000000000002FFFF060F0F00000F0F0A300B
:1009700030FFFF3030FFFF30300A387CEEC6FFFF1B
:10098000C6C68E0C08060909C6F03C0F030A008093
:10099000CCFEF3F39E0C0000020F0F05F0FC0E07D7
:1009A000030503070EFCF00A3070E0C0FCFCC0E059
:1009B00070300AC0C0C0C0FCFCC0C0C0C002000093
:1009C00009C0C0C0C0C0C0C0C0C002000008000054
:1009D00000C0F03C0F030AFCFE87C363331B0FFE0D
:1009E000FC050406FFFF000A0C8EC7C3C3C3C3E7A0
:1009F0007E3C0A0C0E070303C3C3C7FE3C0A80C03B
:100A0000E070381C0EFFFF000A3F3F3333333333AF
:100A100073E3C30AFCFEE763636363E7C6840A0308
:100A2000030383C3E3733B1F0F0A1CBEF7E3C3C377
:100A3000E3F7BE1C0A3C7EE7C3C3C3C3E7FFFE0265
:100A4000303002303008C0E0F0381C0E0703096077
:100A500060606060606060600803070E1C38F0E052
:100A6000C00A0C0E07030383C3E77E3C0AFCFE07A3
:100A7000F31B1BF307FEFC0AF8FE86838383838641
:100A8000FEF80AFFFFC3C3C3C3C3E7FE3C0AFCFE74
:100A90000703030303070E0C0AFFFF03030303030B
:100AA00007FEFC09FFFFC3C3C3C3C3030309FFFF62
:100AB000C3C3C3C3C303030AFCFE07030303838743
:100AC0008E8C0AFFFFC0C0C0C0C0C0FFFF0403FF80
:100AD000FF0308030303030303FFFF09FFFFE0F025
:100AE000381C0E070309FFFF000000000000000A89
:100AF000FFFF0E1C78781C0EFFFF0AFFFF1C3870EA
:100B0000E0C080FFFF0AFCFE070303030307FEFCAF
:100B10000AFFFFC3C3C3C3C3E77E3C0AFCFE07034F
:100B200003030307FEFC0AFFFFC3C3C3C3C3E77E7F
:100B30003C0A3C7EE7C3C3C3C3C387060803030361
:100B4000FFFF0303030AFFFF000000000000FFFF98
:100B50000AFFFF000000000000FFFF0AFFFF000087
:100B600000000000FFFF0A0F1F38F0E0E0F0381F20
:100B70000F0A0F1F3870E0E070381F0F0A030303DD
:100B800083C3E3733B1F0F04FFFF030308030F3C02
:100B9000F0C0000000040303FFFF08180C06030365
:100BA000060C180A0000000000000000000003030B
:100BB0000F0C0AC0E0703030303030F0F00AFFFF28
:100BC000303030303070E0C009C0E070303030304C
:100BD00030300AC0E0703030303030FFFF09C0E004
:100BE0007030303070E0C007C0FCFEC7C3C30309DB
:100BF000C0E07030303030F0F009FFFF303030307E
:100C000070E0C002F6F608000000000000F6F608EA
:100C1000FEFE0080C0E070300403FFFF000AF0F029
:100C20003030F0F03030F0E009F0F030303030703B
:100C3000E0C009C0E07030303070E0C009F0F03042
:100C400030303070E0C009C0E07030303030F0F04B
:100C500009F0F03030303070E0C009C0E0303030A2
:100C6000303030300660FCFC60600009F0F00000BD
:100C7000000000F0F009F0F00000000000F0F00AC1
:100C8000F0F0000000000000F0F00A3070E0C080DA
:100C900080C0E0703009F0F00000000000F0F00AC1
:100CA0003030303030B0F0F0703006C0E0FC3E073D
:100CB0000302FFFF0603073EFCE0C000000A537575
:100CC000636365737366756C6C79207365742064F7
:100CD00061746120746F20454550524F4D000A5495
:100CE000696D652053686966742033206D696E757F
:100CF0007465203A20000A54696D6520536869665E
:100D000074203320686F7572203A20000A54696D90
:100D1000652053686966742032206D696E7574654C
:100D2000203A20000A54696D652053686966742072
:100D30003220686F7572203A20000A54696D652070
:100D400053686966742031206D696E757465203A48
:100D500020000A54696D652053686966742031204B
:100D6000686F7572203A20000A54617267657420BA
:100D700053686966742033203A20000A5461726710
:100D800065742053686966742032203A20000A5442
:100D900061726765742053686966742031203A2057
:100DA000000A5375636365737366756C6C792067AD
:100DB000657420646174612066726F6D20454550D2
:100DC000524F4D000A000A526573657420436F75D7
:100DD0006E74657220746F20302E0000003A003A65
:100DE0000020002D002D00000A54696D65202D2083
:100DF0000000000000250028002B00000000002358
:100E000000260029003A000A20456570726F6D20A7
:100E100069732065786973747320696E20616464F6
:100E2000726573732030782500203A20000A4565EA
:100E300070726F6D20697320656D70747920696EB2
:100E400020616464726573732030780000000000D4
:100E5000240027002A00010204081020408001021B
:100E600004081020010204081020040404040404EF
:100E700004040202020202020303030303030A0042
:100E80000A4564697420436F756E74657220746FCF
:100E90002000207C206F6E20616464726573732073
:100EA0003A20000A496E707574206E65772074616F
:100EB0007267657420776974682076616C75652047
:100EC0003A2000207C206F6E206164647265737329
:100ED000203A20000A496E707574206E6577207381
:100EE000686966742074696D652077697468207616
:100EF000616C7565203A200027000A426164207009
:100F00006172616D657465722027000A000000003F
:100F100008000201000003040700000000000000B8
:100F200000460000FF0800053E5B4F5B3E053E6B40
:100F30004F6B3E051C3E7C3E1C05183C7E3C180554
:100F40001C577D571C051C5E7F5E1C0400183C1856
:100F500005FFE7C3E7FF040018241805FFE7DBE7F8
:100F6000FF0530483A060E05262979292605407FD7
:100F700005050705407F05253F055A3CE73C5A0516
:100F80007F3E1C1C0805081C1C3E7F0514227F2286
:100F90001405FFFFFFFFFF05F0F0F0F0F003FFFF87
:100FA000FF05000000FFFF050F0F0F0F0F050804DE
:100FB0007E04080510207E20100508082A1C08055C
:100FC000081C2A080805AA005500AA05AA55AA5512
:100FD000AA0530383E383005060E3E0E06020000E7
:100FE000015F0307000705147F147F1405444AFFBF
:100FF0004A320563130864630536494936480107D8
:10100000033E41410341413E05082A1C2A080508C8
:10101000083E08080260E00408080808026060054D
:101020006010080403053E5149453E03427F4005D8
:101030007149494946054149494936050F0808089B
:101040007F054F49494931053E494949300503016A
:1010500001017F05364949493605064949493E029D
:101060006C6C026CEC030814220414141414032294
:101070001408050159090906053E415D594E057ED2
:101080000909097E057F49494936053E41414141EB
:10109000057F4141413E057F49494941057F090995
:1010A0000901053E41414979057F0808087F034150
:1010B0007F4105304141413F057F08142241057FB2
:1010C00040404040057F020C027F057F0408107FEE
:1010D000053E4141413E057F09090906053E414162
:1010E000617E057F091929460546494949310501AF
:1010F000017F0101053F4040403F051F2040201F68
:10110000053F4038403F0563140814630503047825
:101110000403056151494543037F41410503040828
:1011200010600341417F05040201020404808080B5
:101130008003010204043844447C047F444438049E
:1011400038444444043844447F0438545458040414
:101150007E05010418A4A47C047F040478017D03A7
:1011600084857C047F102844017F057C0478047802
:10117000047C040478043844443804FC242418040F
:10118000182424FC047C0404080458545434030434
:101190007F04043C40407C041C20407C053C4030E3
:1011A000403C046C10106C041CA0A07C04645454DB
:1011B0004C0408364141017F0441413608040201D4
:1011C0000201057F4141417F053E55555541053896
:1011D00044443844057C2A2A3E14057E0202060651
:1011E00005027E027E020563554941630538444489
:1011F0003C0405407E201E200506027E0202086394
:1012000013086463006060052A2A2A2A2A03514AC7
:101210004403444A51050000FF010303E080FF0539
:101220003612362436030205020218180210100581
:101230003040FF0101041F01011E000000000901F0
:10124000017F017F020C027F00000000000001000E
:10125000017D0418247E2404447E454105221C148B
:101260001C2205012A7C2A010177044E55553903B9
:10127000020002077E81BDA5A5817E0326292F05D8
:1012800008142A1422040808081803080808077E0E
:1012900081BD95A9817E05010101010103020502BD
:1012A00003242E24031915120315150A0202010442
:1012B000F82040780506097F017F02181804008095
:1012C000A0C003121F10032629260522142A140881
:1012D00008402F1008041E117C08402F10080462DB
:1012E000554C0915553F1008041E117C053048481F
:1012F0004D40057815161478057814161578057A7A
:101300001514157A057816151679057815141578BB
:10131000057814151478077E09097F494941059E0F
:10132000A1612121057C54554644057C5456454411
:10133000057E55544546057C5554454403457E4439
:1013400003447E4503467D4603457C4505087F49A9
:10135000413E057C0A11227D053844454638053852
:1013600044464538053A4544453A053846454639E8
:10137000053845444538052214081422057C625A74
:10138000463E053C4041423C053C4042413C053C18
:101390004241423C053C4140413C0502047A050281
:1013A000043F12120C057E49494E30043845467CF4
:1013B000043844467D043846457E043A45467D045B
:1013C0003845447D04304A4D7A07205454385454EB
:1013D00058049CA262220438555658043854565971
:1013E000043856555A043855545902017A027A0184
:1013F000030279020302780204304B4B3C047A0961
:101400000A710430494A300430484A3104304A49AC
:10141000320432494A3104394444390508082A085B
:10142000080438544C380438414278043840427932
:10143000043842417A043A40407A0418A0A2790460
:10144000FC282810041AA0A07A00412111241FBEF4
:10145000CFEFD8E0DEBFCDBF11E0A0E0B1E0ECE718
:10146000F3E502C005900D92A63AB107D9F725E041
:10147000A6EAB1E001C01D92A731B207E1F71AE078
:10148000C6E2DAE004C02197FE010E94BC27C53203
:10149000D107C9F70E94BF210C94BC290C9400000D
:1014A0000895089520910A0530910B05621773077E
:1014B00084F52091080530910905821793074CF5B2
:1014C00097FD27C077FD25C020910C05269FF001D0
:1014D000279FF00D11249C0153E0359527955A95CF
:1014E000E1F72E0F3F1FE0910405F0910505E20F93
:1014F000F31F50819C012770332780E890E002C0E1
:10150000959587952A95E2F7411104C0809585232A
:1015100080830895852BFCCF209108053091090523
:10152000821793070CF080C0AC01460F571F241799
:1015300035073CF4B901681B790B161617060CF039
:1015400073C0AC01477055279A01260F371F293009
:10155000310514F5A3E095958795AA95E1F7E091FB
:101560000405F0910505E80FF91F28E030E0C901F6
:10157000861B970B2FEF30E002C0220F331F8A9596
:10158000E2F7332702C0359527954A95E2F7209573
:1015900030812323208308959C01295F3F4FE3E09E
:1015A00035952795EA95E1F7860F971FBC01F3E083
:1015B00075956795FA95E1F7452B61F0A0910405C3
:1015C000B0910505A90141505109A40FB51F4C91D7
:1015D00040784C932617370750F4A0910405B0913A
:1015E0000505A20FB31F1C922F5F3F4FF3CF9C0145
:1015F00027703327232BC1F0E0910405F0910505F6
:10160000E60FF71F919581959109877099272FEF24
:1016100030E0A90102C0440F551F8A95E2F7CA01C4
:10162000809590818923808308958F929F92AF92B5
:10163000BF92CF92DF92EF92FF920F931F93CF93BF
:10164000DF93E0910805F09109059C01260F371FF3
:10165000E217F3071CF4BF01681B790B20910A0500
:1016600030910B05121613060CF0EBC08E179F0776
:101670000CF0E7C0161617060CF0E3C0FA012417A9
:1016800035070CF4F901E230F1050CF4DAC0382F1B
:101690003770AF014150510920910C05249FF00192
:1016A000259FF00D1124AB01430F511D4930510509
:1016B000ECF548E050E05A01A61AB70A4FEF50E0A7
:1016C00002C0440F551FAA94E2F755278A0102C0B1
:1016D000159507953A95E2F79801F02EBC0133E095
:1016E000769567953A95E1F7E60FF71F38972095BD
:1016F0006E177F0708F0A5C04091040550910505BD
:10170000DA01AE0FBF1F80910C05EF01C81BD10994
:101710004C0F5D1FEA0198819F213C913223932B4E
:101720009C9380910C05E81BF109E2CFC82FC60FEE
:10173000C7709C2EAC01495F5F4F57FF02C0495FE5
:101740005F4F23E0559547952A95E1F7680F791F7C
:1017500077FF02C0695F7F4F83E0759567958A9533
:10176000E1F7AFEFB0E08D01032E02C015950795AC
:101770000A94E2F7C02E88E090E08919910901C02F
:10178000AA0F8A95EAF7DA2ECF01802E80942A2FAD
:101790002095009709F455C03323E1F0E09104054A
:1017A000F09105057A01E80EF91E87010150110933
:1017B0000E0F1F1FA0910C05B0E0A095B095EE0D87
:1017C000FF1DAE0FBF1FEC91EC21D801FC91F82159
:1017D000EF2BEC93FA0100910C0510E0E617F707E8
:1017E000A0F4A0910405B09105057C01EE0EFF1E4A
:1017F000E701C01BD10B8E010A0F1B1FE8011881E6
:10180000AE0DBF1D1C933196E6CF9920A9F0E09153
:101810000405F0910505DB01A80FB91F7F01EA0E51
:10182000FB1EA01BB10BEA0FFB1FE081ED21D701CE
:10183000FC91F223EF2BEC93E0910C058E1B9109A8
:10184000A8CFDF91CF911F910F91FF90EF90DF9084
:10185000CF90BF90AF909F908F90089540917A0362
:1018600050917B03609177037091780325E030E01D
:1018700090E04817590758F4FB01E20FF31FE49179
:10188000F0E031962E0F3F1F4F5F5F4FF2CFC9013F
:10189000089520910A0530910B05621773070CF02B
:1018A00047C0FB01E40FF51FE217F3071CF0A90185
:1018B000461B570B14161506DCF59C0127703327C1
:1018C000E0E8F0E002C0F595E7952A95E2F797FD8C
:1018D000079623E0959587952A95E1F7A0910C0549
:1018E000B0E0460F571F4A9F90014B9F300D5A9F03
:1018F000300D1124AC01420F531F6A9F90016B9F62
:10190000300D7A9F300D1124820F931FE0958417BC
:10191000950770F4A0910405B0910505A80FB91FB3
:101920002C912E232C9320910C05820F911DEFCF2B
:1019300008958F929F92BF92CF92DF92EF92FF9283
:101940000F931F93CF93DF93A0910805B0910905E2
:10195000FC01E40FF51FAE17BF071CF4AD01481BD7
:10196000590BE0910A05F0910B05EB01C20FD31F53
:10197000EC17FD071CF49F01261B370B97FF04C0D3
:10198000480F591F90E080E06E177F0764F0DF91E9
:10199000CF911F910F91FF90EF90DF90CF90BF906C
:1019A0009F908F9008958A179B078CF71416150641
:1019B00074F7121613065CF7A82FA770C0900C05D9
:1019C000D12C6C9DE0016D9DD00D7C9DD00D11241E
:1019D000FA01EA0FF11D39970CF049C0E8E0F0E098
:1019E0007F01E41AF50AEFEFF0E002C0EE0FFF1FEF
:1019F000EA94E2F7FF2702C0F595E795AA95E2F78A
:101A0000260F371F2C9D70012D9DF00C3C9DF00C76
:101A1000112473E0969587957A95E1F78C0F9D1FB9
:101A2000011113C0E0958E159F0508F0B0CFA0916D
:101A30000405B0910505A80FB91F2C912E232C93F6
:101A400020910C05820F911DEECF8E159F0508F099
:101A50009ECFA0910405B0910505A80FB91F2C9148
:101A60002E2B2C9320910C05820F911DEECFB82FB9
:101A7000B40FB770FC013796F7FD379663E0F59524
:101A8000E7956A95E1F7EC0FFD1F840F951F97FD11
:101A9000079643E0959587954A95E1F78C0F9D1F32
:101AA0004FEF50E04A010A2E02C0959487940A94A1
:101AB000E2F768E070E06B1B710901C0440F6A95A2
:101AC000EAF72C9D70012D9DF00C3C9DF00C11242B
:101AD00030E020E001113DC08F0101501109582D67
:101AE000509540952E153F0508F051CFAA2361F07F
:101AF0006091040570910505E801C20FD31FC60F60
:101B0000D71F6881652368836F01C816D90670F4F2
:101B10006091040570910505620F731F6C0D7D1DAA
:101B2000EB011882DFEFCD1ADD0AEFCFBB2361F0A6
:101B30006091040570910505EC01C20FD31FC60F1B
:101B4000D71F68816423688360910C05260F311DBF
:101B5000C9CF8F0101501109BB24BA942E153F053E
:101B600008F015CFAA2369F0C0900405D0900505B0
:101B7000B801620F731F6C0D7D1DEB01D880D82852
:101B8000D8826F01C816D90670F46091040570916F
:101B90000505620F731F6C0D7D1DEB01B882DFEF31
:101BA000CD1ADD0AEFCFBB2369F0C0900405D090B9
:101BB0000505BC01620F731F6C0D7D1DEB01D88004
:101BC000D42AD88260910C05260F311DC7CF2091F1
:101BD0007703309178032817390721F09093780321
:101BE000809377038091770390917803FC0134917F
:101BF00021E0343509F020E020937903FC0132968E
:101C0000E491F0E0F0937B03E0937A03FC013396D8
:101C1000E491F0E0F0937D03E0937C03FC013496C3
:101C2000E491F0E0F0937F03E0937E0381E0089578
:101C30001F93CF93DF93BC016F5F7F4FA0E8B0E0AD
:101C400086179707A0F5EC01F3E0D695C795FA95AE
:101C5000E1F7282F2770AD0102C0559547952A95C9
:101C6000E2F7142F109550E040E0E0910F05F0915D
:101C700010054E9F90014F9F300D5E9F300D112437
:101C8000E3E036952795EA95E1F72C0F3D1FE091AB
:101C90000D05F0910E05E20FF31F20812123208313
:101CA0004F5F5F4F4031510501F70196C9CFDF917A
:101CB000CF911F910895AF92BF92CF92DF92EF9292
:101CC000FF920F931F93CF93DF936C017B018B01E6
:101CD000040F151FEB015E01AE18BF08C017D10736
:101CE00059F06991D601ED91FC910190F081E02DC0
:101CF000C6010995892B79F7C501DF91CF911F9115
:101D00000F91FF90EF90DF90CF90BF90AF9008952C
:101D1000FC01538D448D252F30E0842F90E0821BF1
:101D2000930B541710F0CF96089501970895FC0176
:101D3000918D828D981761F0A28DAE0FBF2FB11DCE
:101D40005D968C91928D9F5F9F73928F90E0089526
:101D50008FEF9FEF0895FC01918D828D981731F0E0
:101D6000828DE80FF11D858D90E008958FEF9FEF34
:101D70000895FC01918D228D892F90E0805C9F4F0A
:101D8000821B91098F739927089588EB92E00E9436
:101D9000B90E21E0892B09F420E0822F089580E01C
:101DA00090E0892B29F00E94C50E81110C9400004F
:101DB0000895FC01A48DA80FB92FB11DA35ABF4FE0
:101DC0002C91848D90E001968F739927848FA6893A
:101DD000B7892C93A089B1898C91837080648C938E
:101DE000938D848D981306C00288F389E02D80813D
:101DF0008F7D80830895EF92FF920F931F93CF936F
:101E0000DF93EC0181E0888F9B8D8C8D98131AC035
:101E1000E889F989808185FF15C09FB7F894EE891C
:101E2000FF896083E889F989808183708064808379
:101E30009FBF81E090E0DF91CF911F910F91FF90C4
:101E4000EF900895F62E0B8D10E00F5F1F4F0F736C
:101E50001127E02E8C8D8E110CC00FB607FCFACF27
:101E6000E889F989808185FFF5CFCE010E94D90EDE
:101E7000F1CFEB8DEC0FFD2FF11DE35AFF4FF082F8
:101E80009FB7F8940B8FEA89FB8980818062CFCF5E
:101E90000F931F93CF93DF938C01D0E0C0E0F80144
:101EA000EC0FFD1F6491662341F088EB92E00E94E5
:101EB000FB0E892B11F02196F2CFCE01DF91CF914D
:101EC0001F910F910895CF93DF93EC01888D8823A4
:101ED000B9F0AA89BB89E889F9898C9185FD03C08D
:101EE000808186FD0DC00FB607FCF7CF8C9185FF72
:101EF000F2CF808185FFEDCFCE010E94D90EE9CFD0
:101F0000DF91CF910895833081F028F4813099F0EA
:101F10008230A9F008958730A9F08830C9F0843064
:101F2000B1F4809180008F7D03C0809180008F7715
:101F300080938000089584B58F7784BD089584B51B
:101F40008F7DFBCF8091B0008F778093B000089594
:101F50008091B0008F7DF9CFCF93DF93282F30E0B1
:101F6000F901E35FF04F8491F901EA5AF14FD491FE
:101F7000F901E659F14FC491CC23A1F081110E94DF
:101F8000830FEC2FF0E0EE0FFF1FE550F24FA5910D
:101F9000B491EC91ED2381E090E009F480E0DF91D1
:101FA000CF91089580E090E0FACF1F93CF93DF9315
:101FB000282F30E0F901E35FF04F8491F901EA5AEC
:101FC000F14FD491F901E659F14FC491CC23A9F016
:101FD000162F81110E94830FEC2FF0E0EE0FFF1FF0
:101FE000EF50F24FA591B4918FB7F894EC91111185
:101FF00008C0D095DE23DC938FBFDF91CF911F9176
:102000000895DE2BF8CFE0E1FFE0E491E33039F111
:1020100060F4E130D1F0E230E9F060E08038910521
:102020000CF061E083E00C94D50FE73011F1E8305B
:1020300041F1E43091F720918000206220938000EC
:1020400090938B0080938A00089594B5906894BD16
:1020500087BD089594B5906294BD88BD0895209180
:1020600080002068209380009093890080938800EE
:1020700008959091B00090689093B0008093B30061
:1020800008959091B00090629093B0008093B40056
:102090000895CF93DF9390E0FC01EA5AF14F249129
:1020A0008659914FFC0184918823D1F090E0880FEC
:1020B000991FFC01E45BF14FA591B491FC01EF5035
:1020C000F24FC591D491623071F49FB7F8943C916E
:1020D000822F809583238C93E8812E2B28839FBFAA
:1020E000DF91CF9108958FB7F894EC912E2B2C931C
:1020F0008FBFF6CF3FB7F89480910C0290910D02FC
:10210000A0910E02B0910F0226B5A89B05C02F3FEB
:1021100019F00196A11DB11D3FBFBA2FA92F982F0D
:102120008827BC01CD01620F711D811D911D42E008
:10213000660F771F881F991F4A95D1F708958F92D0
:102140009F92AF92BF92CF92DF92EF92FF926B017C
:102150007C010E947A104B015C01C114D104E1049E
:10216000F104B9F00E947A10681979098A099B096B
:10217000683E73408105910580F321E0C21AD108C1
:10218000E108F10888EE880E83E0981EA11CB11CBE
:10219000E4CFFF90EF90DF90CF90BF90AF909F90F3
:1021A0008F900895AF92BF92CF92DF92EF92FF92FD
:1021B0000F931F93CF93DF936C017B015A01D0E003
:1021C000C0E0022F10E0F60180819181C817D90785
:1021D000B8F4B5016C0F7D1FC8010C2E02C0959597
:1021E00087950A94E2F741E080FF40E0C7010E9432
:1021F000520A60E070E0CB010E949F102196E3CF6D
:10220000DF91CF911F910F91FF90EF90DF90CF90D2
:10221000BF90AF9008952F923F924F925F926F922E
:102220007F928F929F92AF92BF92CF92DF92EF9266
:10223000FF920F931F93CF93DF9300D000D0CDB7C1
:10224000DEB7182F7C836B832A0169010E942E0C54
:102250005C0180E8810F0E942E0C4C018091770375
:1022600090917803FC01EA0DFB1D2491880D991DC6
:10227000FC018491EE24E394F12C422F50E05A8328
:1022800049832B803C8058E0250E311C052C000C26
:10229000660877088091800390918103970121500F
:1022A0003109E981FA812E173F0708F055C0F2E0A5
:1022B000CF16D10461F420917E0330917F0300E0BA
:1022C00041E050E06B817C8101970E94990C85016F
:1022D0000E0D1F1DE0917703F0917803609180034C
:1022E0007091810380917903882351F194012E0D1F
:1022F0003F1DE20FF31F24914B815C818EE793E039
:102300000E94D210E0917703F0917803E00FF11F63
:1023100024916091800370918103CB010196909389
:10232000810380938003A1018EE793E00E94D21085
:10233000C301B2010E949F102FEFE21AF20AAACF46
:10234000E00FF11F2491CB010196909381038093BC
:1023500080034B815C81E8CF42E0C416D10461F474
:1023600020917E0330917F0300E041E050E06B81DB
:102370007C8101970E94990C809180039091810348
:1023800097FD0FC02091080530910905821793072A
:1023900044F440917E0350917F036B817C810E94C5
:1023A000490C809180039091810301969093810361
:1023B000809380030F900F900F900F90DF91CF913B
:1023C0001F910F91FF90EF90DF90CF90BF90AF9053
:1023D0009F908F907F906F905F904F903F902F9045
:1023E0000895CF93DF937093810360938003FC0182
:1023F000C081D1818991882349F030E020E050E00C
:1024000040E070E060E00E940B11F4CFDF91CF91CB
:102410000895089508952091E401260F3327331F6E
:1024200021323105ECF420919002FC0190E080E033
:10243000243069F082E00895A091E4012191AC017B
:102440004C535E4FA40FB52FB11D2C9301968617E8
:1024500098F38091E401680F6093E40180E00895AF
:1024600081E008951092900281E080938F02109293
:102470006A0261E082E10E94D50F61E083E10E947F
:10248000D50FE9EBF0E080818E7F808380818D7FA6
:10249000808388E48093B80085E48093BC0008952D
:1024A000CF93DF9391E09093C3018823B9F0C0915B
:1024B000B800D091BA008091BC008A7B8093BC00A8
:1024C00060E082E10E94D50F60E083E10E94D50FB9
:1024D0000E943212D093BA00C093B800DF91CF911E
:1024E00008958F929F92AF92BF92CF92DF92EF9218
:1024F000FF920F931F93CF93DF93D0915903D13263
:1025000008F0D7C0182FC091B7020E947A106B0153
:102510007C018091900281116BC082E080939002D7
:1025200010938F028FEF80938E0210928D02D093C2
:102530008C02A7E9B2E0ECE6F2E080E0D81391C0AB
:1025400010926B0280916B02CC0FC82BC0936B0270
:1025500080916A02813009F088C010926A020E945C
:102560007A106B017C0180916B028093BB0080919B
:10257000920290919302A0919402B0919502892BBE
:102580008A2B8B2BA1F00E947A100091920210915D
:10259000930220919402309195026C197D098E0965
:1025A0009F09061717072807390708F442C08091CA
:1025B000BC0083FDD8CF85EC8093BC000E947A10CC
:1025C0006B017C0180919002823009F450C08091AF
:1025D0008E028F3F09F46FC080918E02803209F421
:1025E0006CC080918E02803309F469C084E026C0FB
:1025F0008091920290919302A0919402B0919502E1
:10260000892B8A2B8B2B09F484CF0E947A1080901F
:10261000920290909302A0909402B09095026C194F
:102620007D098E099F0986169706A806B90608F047
:1026300070CF809191020E94501285E010925A034F
:102640001092590310929602DF91CF911F910F9132
:10265000FF90EF90DF90CF90BF90AF909F908F90C2
:1026600008959D9191938F5F69CF85EEA5CF80915D
:10267000920290919302A0919402B0919502892BBD
:102680008A2B8B2B09F49ECF0E947A100091920224
:102690001091930220919402309195026C197D095A
:1026A0008E099F09061717072807390708F08ACFF0
:1026B000C0CF81E0C3CF80E0C1CF82E0BFCF83E055
:1026C000BDCF0895E0915C0380915B03E81730F47F
:1026D000F0E0EE5BFD4F808190E008958FEF9FEF7B
:1026E000089590915C0380915B032FEF3FEF981763
:1026F00048F4E92FF0E0EE5BFD4F208130E09F5F72
:1027000090935C03C901089580915B0390915C03F1
:10271000891B990B0895CF92DF92EF92FF920F934E
:102720001F93CF93DF937C01CB018A012091960206
:10273000222389F0EB016B01C40ED51ECC15DD05FB
:1027400069F06991D701ED91FC910190F081E02D44
:10275000C7010995F3CF642F0E940B12C801DF91C6
:10276000CF911F910F91FF90EF90DF90CF90089540
:10277000CF93DF931F92CDB7DEB769832091960286
:102780002223F9F020915903203258F021E030E063
:10279000FC013383228390E080E00F90DF91CF91A2
:1027A000089580915A03E82FF0E0E956FD4F998192
:1027B00090838F5F80935A038093590381E090E068
:1027C000ECCF61E0CE0101960E940B12F7CF90E0B2
:1027D00080E008958DEE92E00E94480F82EB92E037
:1027E0000E94480F87E792E00E94480F8BE392E037
:1027F0000E94480F8BE092E00E94480F8CEB91E022
:102800000E94480F8AE891E00E94480F80E691E01C
:102810000E94480F84E391E00E94480F85E091E018
:102820000E94480F85ED90E00E94480F8FE990E0EC
:102830000E94480F84E790E00C94480F20910F0508
:1028400030911005E3E036952795EA95E1F7809100
:10285000A601829FA001839F500D112480910D0538
:1028600090910E05840F951F40E020911105309145
:10287000120574E0369527957A95E1F7421713060D
:1028800018F520910F0530911005220F331F280FE6
:10289000391F682FFC0180910F059091100553E0BE
:1028A000969587955A95E1F75E2F561B581719068E
:1028B00040F481918EBD00000DB407FEFDCF8EB5B2
:1028C000EACF4F5FC901D1CF80ED97E04B9902C0AD
:1028D0000197E1F789B12091A60190E1299F90012C
:1028E00011248F70822B8BB984E089B989B98091CA
:1028F000A6018F5F8F708093A60108950F931F9399
:10290000CF93DF938C01C0E1D0E040E150E060E480
:1029100070E0C8010E94150B80910A0590910B058B
:10292000181619062CF460E470E0C8010E948C0AA5
:1029300064E170E080E090E00E949F10219729F709
:10294000DF91CF911F910F910895CF92DF92EF9277
:10295000FF920F931F93CF93DF93C62F91E0909335
:10296000960298E69093B70210925A031092590378
:10297000682F8DE593E00E94B81381E00E947112E8
:10298000D82F8111D3C00E947A106B017C018091F5
:102990009002811165C081E08093900280938F0244
:1029A0009FEF90938E0210928D029C0F90938C0259
:1029B00080936B0280916B02806D80936B0280919B
:1029C0006A02813009F08CC010926A020E947A106B
:1029D0006B017C0180916B028093BB00809192021D
:1029E00090919302A0919402B0919502892B8A2B29
:1029F0008B2BA1F00E947A10009192021091930209
:102A000020919402309195026C197D098E099F09DD
:102A1000061717072807390708F443C08091BC0040
:102A200083FDD8CF85EC8093BC000E947A106B01A7
:102A30007C0180919002813009F454C080918D0214
:102A40008C1708F071C080918D02ECE6F2E0A2E4F0
:102A5000B2E090E0981751F121912D939F5FFACF4A
:102A60008091920290919302A0919402B09195026C
:102A7000892B8A2B8B2B09F48ACF0E947A10009124
:102A800092021091930220919402309195026C1958
:102A90007D098E099F09061717072807390708F0CF
:102AA00076CF809191020E94501280E010925C03D8
:102AB00080935B0302E612E08DE593E00E947113C0
:102AC000F80181938F01DF5FCD13F6CF8C2FDF915B
:102AD000CF911F910F91FF90EF90DF90CF900895CD
:102AE00085EEA1CF8091920290919302A0919402E1
:102AF000B0919502892B8A2B8B2B09F49ACF0E94D7
:102B00007A100091920210919302209194023091D8
:102B100095026C197D098E099F090617170728076A
:102B2000390708F086CFBDCF8C2F8FCFC0E0CECF36
:102B300067E080E00E94A51420916202822F90E05D
:102B4000F4E095958795FA95E1F7982F990F990FED
:102B5000891B880F820F80936F0320916302822F5D
:102B600090E0A4E095958795AA95E1F7982F990FA5
:102B7000990F891B880F820F80936E0380916402E6
:102B800086FF64C0982F9F71292F30E0E4E03595CF
:102B90002795EA95E1F7322F330F330F231B220FCE
:102BA000290F20936D038072809371032091650239
:102BB000822F90E034E0959587953A95E1F7982F2C
:102BC000990F990F891B880F820F809370032091B2
:102BD0006602822F90E044E0959587954A95E1F74B
:102BE000982F990F990F891B880F820F80936C0380
:102BF00040916702842F90E054E0959587955A950F
:102C0000E1F7982F990F990F891B880F840F8093F4
:102C10006B0390916802292F30E064E03595279589
:102C20006A95E1F7822F880F880F522F581B852F46
:102C3000880F890F90E09C012053384F47FD1AC040
:102C400030936A032093690381E00895282F2F733E
:102C5000822F90E074E0959587957A95E1F7982F0B
:102C6000990F990F891B880F820F80936D03109223
:102C700071039CCF8C5C974F90936A038093690398
:102C8000E3CF8F929F92AF92BF920F931F93CF93F8
:102C9000DF93CDB7DEB7A1970FB6F894DEBF0FBEB6
:102CA000CDBF19A2423008F44AE08E010F5D1F4FDC
:102CB000842E912CB12CA12CA50194010E947F2778
:102CC000E62FB901CA01EA3044F5E05DD801EE9380
:102CD0008D01232B242B252B79F790E080E0109792
:102CE00069F0FD0101900020E9F73197AF014A1B1F
:102CF0005B0BBD0188EB92E00E945B0EA1960FB6C4
:102D0000F894DEBF0FBECDBFDF91CF911F910F9121
:102D1000BF90AF909F908F900895E95CD7CF682FB8
:102D200070E090E080E04AE00C944116CF92DF9290
:102D3000EF92FF92CF93DF936C01990FEE08FF089B
:102D4000F7FE19C06DE288EB92E00E94FB0EEC01E9
:102D500066277727CB016C197D098E099F094AE008
:102D60000E9441168C0F9D1FDF91CF91FF90EF9035
:102D7000DF90CF9008954AE0C701B601DF91CF916F
:102D8000FF90EF90DF90CF900C944116009769F080
:102D9000FC0101900020E9F73197AF01481B590B66
:102DA000BC0188EB92E00C945B0E90E080E008950B
:102DB00060E08A3020F490E390933F0261E070E09D
:102DC000615C7D4F4AE090E00E94B7268FE392E07D
:102DD00008950E94981588EE9DE00E94480F87EEA6
:102DE0009DE00E94480F6091690370916A0390E032
:102DF00080E04AE00E94411685EE9DE00E94480F67
:102E000080916B030E94D8160E94C61683EE9DE047
:102E10000E94480F80916C030E94D8160E94C6162B
:102E200081EE9DE00E94480F80916D030E94D816AC
:102E30000E94C6168FED9DE00E94480F80916E03A0
:102E40000E94D8160E94C6168DED9DE00E94480F84
:102E500080916F030E94D8160E94C61661E082E03E
:102E60000E94A5148091620286FF0CC08CED9DE04B
:102E70000E94480F80917103811116C084E791E090
:102E80000E94C6168BED9DE00E94480FE0917003F2
:102E9000E83008F0E0E0F0E0EE0FFF1FE65DFE4FE7
:102EA000808191810C94C61680E791E0E9CF109261
:102EB0003E0210923D024AE063E372E090E080E05F
:102EC0000E94B72690E080E00E947E1486EC9DE090
:102ED0000E94480F84EC9DE00C94480F0E949815C6
:102EE00080916D039091C201891738F482E090E0DF
:102EF0009093C1018093C0010895891315C020915A
:102F00006E039091BF01291788F329130DC080919A
:102F1000C0019091C101892B11F00E9457171092A6
:102F2000C1011092C00108959091BE018917B8F3B4
:102F3000891313C020916E039091BD01291778F376
:102F400029130BC08091C0019091C101019711F02C
:102F50000E94571781E090E0CBCF9091BC01891778
:102F6000C8F38913C3CF90916E038091BB0198176A
:102F700088F39813BBCF8091C0019091C101029753
:102F800009F4B4CF0E945717B1CFCF93DF9380914C
:102F9000AF019091B0010A9709F05FC088E00E94EC
:102FA000AC0FEC019093AE018093AD018CE00E94D8
:102FB000AC0F9093AC018093AB018091A9019091EB
:102FC000AA01C817D90701F1CD2BC1F480913D02A8
:102FD00090913E02019690933E0280933D024AE01A
:102FE00063E372E00E94B72688E690E00E94480FF3
:102FF00080913D0290913E020E94961664EF71E02E
:1030000080E090E00E949F108091AD019091AE0110
:103010009093AA018093A9018091AB019091AC019A
:103020002091A7013091A8018217930751F0892BB5
:1030300011F40E94571764EF71E080E090E00E9465
:103040009F108091AB019091AC019093A801809367
:10305000A7011092B0011092AF018091AF01909141
:10306000B00101969093B0018093AF01DF91CF91B1
:103070000895FC0180819181009711F00C945E28E5
:1030800008950F931F93CF93DF93EC01888199816B
:10309000009759F02A813B812617370730F081E0ED
:1030A000DF91CF911F910F9108958B016F5F7F4F3B
:1030B0000E94E728009759F0998388831B830A832D
:1030C0002C813D81232B59F7FC011082E8CF80E051
:1030D000E7CFEF92FF920F931F93CF93DF9361158A
:1030E000710541F480E0DF91CF911F910F91FF9026
:1030F000EF900895FB0101900020E9F73197E61B5E
:10310000F70BE1F07B018C01DC011496CD91DC9191
:10311000CE0FDF1FBE010E944118882319F3F8016A
:103120002081318184819581B701820F931F0E9494
:10313000B529D8011596DC93CE93149781E0D3CFAF
:10314000EF92FF920F931F93CF93DF93EC017B01DC
:103150008A01BA010E94411828813981811114C065
:103160002115310519F0C9010E945E2819821882C3
:103170001D821C821B821A82CE01DF91CF911F918A
:103180000F91FF90EF9008951D830C83B701C90143
:103190000E94B529F1CFFC011182108213821282A4
:1031A00015821482FB0101900020E9F73197AF01ED
:1031B000461B570B0C94A018EF92FF920F931F938E
:1031C000CF93DF93CDB7DEB72E970FB6F894DEBF5F
:1031D0000FBECDBF7C018B014AE0BE016F5F7F4F08
:1031E0000E94B7268FEE92E00E94E70DBE016F5F4E
:1031F0007F4F8AE0E816F104E4F4CE0109960E94BC
:10320000CB18B8016F5C7F4FCE0109960E94F11177
:10321000CE0109960E9439182E960FB6F894DEBF9B
:103220000FBECDBFDF91CF911F910F91FF90EF9017
:10323000089584E6E816F10444F4CE0109960E944C
:10324000CB18B8016A5D7F4FDFCF88EEE81683E0C8
:10325000F80644F4CE0109960E94CB18B801655EC9
:103260007F4FD2CF80E1E81687E2F80644F4CE0122
:1032700009960E94CB18B801605F7F4FC5CFCE0181
:1032800009960E94CB18B8016B5F7F4FBDCF85EDCB
:103290008093BC008091920290919302A09194023D
:1032A000B09195020796A11DB11D23E0B695A79593
:1032B000979587952A95D1F72091BC0024FD03C0EE
:1032C0001092900208954091920250919302609161
:1032D000940270919502452B462B472B69F300977A
:1032E000A105B10541F025E32A95F1F7000001970A
:1032F000A109B109E1CF809191020C945012CF93B2
:10330000DF93EB010E9400278883CE01DF91CF91EC
:1033100008950F931F93CF93DF938C01EB010E94CD
:1033200000278883C80101960E9400278983CE0167
:10333000DF91CF911F910F910895CF93DF9365EBAC
:1033400071E090E080E00E94891967EB71E084E110
:1033500090E00E94891969EB71E088E290E00E9498
:10336000891962EC71E08CE390E00E947F196FEBA9
:1033700071E08DE390E00E947F196EEB71E08EE3C7
:1033800090E00E947F196DEB71E08FE390E00E9466
:103390007F196CEB71E080E490E00E947F196BEB89
:1033A00071E081E490E00E947F1981EA9DE00E9433
:1033B000480F8EE89DE00E94480FC5EBD1E0888160
:1033C00099810E9496168BE79DE00E94480F8A81A2
:1033D0009B810E94961688E69DE00E94480F8C8192
:1033E0009D810E94961682E59DE00E94480F809183
:1033F000C2010E948F168AE39DE00E94480F8091CF
:10340000BF010E948F1684E29DE00E94480F8091C8
:10341000BE010E948F168CE09DE00E94480F8091B3
:10342000BD010E948F1686EF9CE00E94480F80919C
:10343000BC010E948F168EED9CE00E94480F809187
:10344000BB01DF91CF910C948F16FF920F931F93C6
:10345000CF93DF938C01EB01F8800E940027F816D0
:1034600021F06F2DC8010E940827CE01DF91CF9176
:103470001F910F91FF900895FF920F931F93CF9389
:10348000DF93EC018B01FB01F0800E940027F8160E
:1034900021F06F2DCE010E940827F801F1802196BE
:1034A000CE010E940027F81621F06F2DCE010E9458
:1034B0000827C801DF91CF911F910F91FF900895C8
:1034C000CF93DF93C5EBD1E08CEB92E099838883B7
:1034D000BE0190E080E00E943C1A6AE070E080E06B
:1034E00090E00E949F1088E592E09B838A8367EBBF
:1034F00071E084E190E00E943C1A6AE070E080E0B4
:1035000090E00E949F1084EF91E09D838C8369EB93
:1035100071E088E290E00E943C1A6AE070E080E08E
:1035200090E00E949F1087E08093C20162EC71E0FE
:103530008CE390E00E94251A6AE070E080E090E061
:103540000E949F10CEE1C093BF016FEB71E08DE34D
:1035500090E00E94251A6AE070E080E090E00E940E
:103560009F108FE08093BE016EEB71E08EE390E0E0
:103570000E94251A6AE070E080E090E00E949F10AF
:10358000C093BD016DEB71E08FE390E00E94251ABE
:103590006AE070E080E090E00E949F1087E18093F5
:1035A000BC016CEB71E080E490E00E94251A6AE0B7
:1035B00070E080E090E00E949F10C093BB016BEB35
:1035C00071E081E490E00E94251A8DEB9CE00E945E
:1035D000480FDF91CF910C949D192F923F924F92FB
:1035E0005F926F927F928F929F92AF92BF92CF9293
:1035F000DF92EF92FF920F931F93CF93DF93CDB79C
:10360000DEB760970FB6F894DEBF0FBECDBFA8E05F
:103610004A2E512C22242A94312C88EB92E00E94CD
:10362000B90E892B09F0C5C30091B3011091B40103
:103630000115110509F024C18CEB95E00E94E70DFE
:103640008091C0019091C1012AE0289FB001299F7B
:10365000700D1124645F7E4FCE0109960E94CB1835
:1036600081E890E09093810380938003E984FA8459
:10367000F70181917F01882349F022E030E04AE0A0
:1036800050E061E070E00E940B11F2CF1A821982C3
:103690001C821B821E821D8269857A8561157105D7
:1036A00031F04D855E85CE0101960E94A018C9803B
:1036B000DA807601F60101900020E9F73197EC19E4
:1036C000FD09C7018C199D098E179F0788F4F70122
:1036D00081917F010E942E0CE0917703F091780395
:1036E000E80FF91FE491F0E031960E0F1F1FE2CFB3
:1036F00001581F4F1093810300938003F60101903E
:103700000020E9F79F01215031093901C614D7047F
:1037100009F49EC0F30112913F01812F0E942E0CEB
:103720005C0180E8810F0E942E0C4C018091770390
:1037300090917803FC01EA0DFB1DE490880D991D22
:10374000FC018491F12C20917E0330917F038091C4
:10375000800390918103E114F10409F457C001E062
:1037600042E050E061E070E001970E94990C850111
:103770000E0D1F1D80917903E0917703F09178037E
:1037800060918003709181038823A1F194012E0D33
:103790003F1DE20FF31F249141E050E08EE793E0DC
:1037A0000E94D210E0917703F0917803E00FF11FAF
:1037B00024916091800370918103CB0101979093D4
:1037C00081038093800349E050E08EE793E00E94FC
:1037D000D2108091800390918103803C910534F454
:1037E00062E070E080E090E00E949F10F1E0EF1A4C
:1037F000F108A9CFE00FF11F2491CB01019790931D
:1038000081038093800341E050E0DFCF97FD0CC03F
:103810004091080550910905841795072CF4A901DA
:1038200061E070E00E94490C8091800390918103D7
:1038300001979093810380938003803C91050CF065
:1038400065CF62E070E080E090E00E949F105ECF64
:10385000CE0101960E943918CE0109960E943918AE
:1038600064EF71E080E090E00E949F108091B301CE
:103870009091B40101969093B4018093B30110C06C
:10388000C8010197069728F564EF71E080E090E0A9
:103890000E949F100F5F1F4F1093B4010093B3015C
:1038A000E091C001F091C101EE0FFF1FEB54FE4FFC
:1038B00060E470E0808191810E94DC1870E060E03B
:1038C00080913D0290913E020E94DC180E946E178A
:1038D000A4CE0730110589F481E890E00E947E149F
:1038E00028E030E03093B4012093B30164EF71E03D
:1038F00080E090E00E949F10D3CF0830110509F0BE
:10390000D9C00E9498158FEE92E00E94E70D809139
:103910006D030E94D816BC01CE0101960E94B52904
:1039200068E771E0CE0103960E94B52980916E038D
:103930000E94D816BC01CE0104960E94B529BE0192
:103940006F5F7F4FCE0109960E94CB1800917E03D6
:1039500010917F030150110908F47ECF89E890E0AF
:10396000909381038093800340917E0350917F0365
:1039700065E370E00E94150B80910A0590910B059C
:103980001816190634F465E370E089E890E00E94A7
:103990008C0A69847A84F8013897F88BEF87F301F1
:1039A000F1903F01FF2009F47EC08F2D90E020911F
:1039B0007A0330917B03821793078CF320917C0369
:1039C00030917D032817390754F38091800390913B
:1039D0008103813C91051CF78F2D0E942E0C4C0118
:1039E00080E88F0D0E942E0C209177033091780390
:1039F000F901E80DF91DE491EE2EF12CF901E80F23
:103A0000F91FE491D12CC12CFFEF8F1A9F0A5C01A2
:103A10002FEFA21AB20A8091800390918103CE14F5
:103A2000DF04B8F58C0D9D1D9C0129583109253303
:103A3000310558F5E0917703F091780320917903EF
:103A4000222361F0083011054CF495012C0D3D1D29
:103A5000E20FF31FE491F0E0202F0BC094012C0D36
:103A60003D1DE20FF31FE491F0E02F8508301105B2
:103A70009CF302C0F595E7952A95E2F741E0E0FF57
:103A800040E070E060E00E94520A3FEFC31AD30AA0
:103A9000C2CFEFEFEE1AFE0A8E0D9F1D90938103A9
:103AA000809380037CCF64E170E080E090E00E942E
:103AB0009F1050CFC80109970B9708F0A1C00E9432
:103AC00098158FEE92E00E94E70D61E871E0CE015B
:103AD00001960E94CB1880916D030E94D816009722
:103AE00009F464C0FC0101900020E9F73197AF01AF
:103AF000481B590BBC01CE0101960E94A01868E733
:103B000071E0CE0101960E94691880916E030E94B7
:103B1000D816BC01CE0101960E9469181A86198632
:103B20001C861B861E861D8669817A81611571053A
:103B300031F04D815E81CE0109960E94A01869E89E
:103B400070E0CE0109960E94F111CE0109960E9403
:103B500039188091B1019091B201892BA1F500E053
:103B60002CE030E042E050E070E060E08FE990E06F
:103B70000E94990C64EF71E080E090E00E949F1039
:103B80000E94981521E030E03093B2012093B101FA
:103B90008091B3019091B40101969093B401809308
:103BA000B301CE0101960E9439187ACE89819A819B
:103BB000009711F00E945E281A8219821E821D82CF
:103BC0001C821B829CCF68E771E0CE0109960E949F
:103BD000CB186FE970E0CE0109960E94F111CE0179
:103BE00009960E94391864EF71E080E090E00E942D
:103BF0009F100E9498151092B2011092B101C8CF87
:103C00000431110509F04CCE00E410E040910805A4
:103C100050910905CA0181589109413C510514F0A0
:103C200080E490E020910A0530910B0520313105A8
:103C3000ECF5121613060CF0A7C0423851050CF42F
:103C4000A3C0823091050CF49FC040910C05429FA7
:103C5000B001439F700D11248830910554F5F20195
:103C6000E81BF90B910102C0220F331FEA95E2F71E
:103C7000359527952F773327A22F40E150E046173F
:103C8000570708F081C0E0910405F0910505E40FA5
:103C9000F51F90818A2F892386958927822389277A
:103CA000808380910C05480F511DE9CF20E130E061
:103CB000C4CF8F579F4FAC01E3E055954795EA95E8
:103CC000E1F7877099279201281B390BC901222D32
:103CD00001C0220F8A95EAF7211103C04150510912
:103CE0002FEF90E080E0DA0150978617970708F0F1
:103CF0004BC0E0900405F0900505FC017096EE0DB8
:103D0000FF1DE080CE2CC794CC24C794FE2CE894F1
:103D1000F7F8F6943E2D3078F32AF082A230B10500
:103D2000D8F031E1D32EED2CF12CE0910405F09187
:103D30000505E416F50680F4E80EF91EEE0DFF1DEC
:103D4000E080FE2CF6943C2D3F293083D394CE2C7A
:103D5000C794CC24C794E7CF7C01E40EF51EE09114
:103D60000405F0910505EE0DFF1DE080FE2CF2220A
:103D7000F694FE24F222FE243C2D3F29308330911C
:103D80000C05830F911DB1CF65E070E080E090E0FD
:103D90000E949F100150110909F038CF64EF71E0C3
:103DA00080E090E00E949F101092B4011092B30145
:103DB00077CD88EB92E00E94970E182F082E000C0A
:103DC000990B0E94E426892B09F027CC812F60965D
:103DD0000FB6F894DEBF0FBECDBFDF91CF911F911C
:103DE0000F91FF90EF90DF90CF90BF90AF909F909A
:103DF0008F907F906F905F904F903F902F9008959D
:103E0000CF93DF9300D01F92CDB7DEB780917A01B8
:103E100090917B01A0917C0189839A83AB830E945E
:103E2000ED1A89830E94ED1A8A83CE0101960E94C1
:103E300099260F900F900F90DF91CF9108951F92C8
:103E40000F920FB60F9211242F933F934F935F93CE
:103E50006F937F938F939F93AF93BF93EF93FF9352
:103E600088EB92E00E94D90EFF91EF91BF91AF9144
:103E70009F918F917F916F915F914F913F912F9182
:103E80000F900FBE0F901F9018951F920F920FB6B4
:103E90000F9211242F938F939F93EF93FF93E091B1
:103EA000C802F091C9028081E091CE02F091CF0268
:103EB00082FD1BC090818091D1028F5F8F73209112
:103EC000D202821741F0E091D102F0E0E854FD4FB8
:103ED000958F8093D102FF91EF919F918F912F91B8
:103EE0000F900FBE0F901F9018958081F4CF1F92F6
:103EF0000F920FB60F9211242F933F938F939F939E
:103F0000AF93BF938091080290910902A0910A0299
:103F1000B0910B023091070223E0230F2D3758F5A3
:103F20000196A11DB11D2093070280930802909372
:103F30000902A0930A02B0930B0280910C029091A7
:103F40000D02A0910E02B0910F020196A11DB11DAC
:103F500080930C0290930D02A0930E02B0930F0277
:103F6000BF91AF919F918F913F912F910F900FBE75
:103F70000F901F90189526E8230F0296A11DB11DE2
:103F8000D2CF1F920F920FB60F9211242F933F930F
:103F90004F935F936F937F938F939F93AF93BF9351
:103FA000EF93FF938091170281110FC010921402BA
:103FB0001092130210921202109211021092160225
:103FC0001092150281E080931702E0911102F091A6
:103FD00012020995FF91EF91BF91AF919F918F913F
:103FE0007F916F915F914F913F912F910F900FBEF5
:103FF0000F901F9018951F920F920FB60F921124D9
:104000002F933F934F935F936F937F938F939F93E0
:10401000AF93BF93EF93FF93E0910001F091010103
:104020000995FF91EF91BF91AF919F918F917F91F2
:104030006F915F914F913F912F910F900FBE0F9015
:104040001F9018951F920F920FB60F9211242F9365
:104050003F934F935F936F937F938F939F93AF9310
:10406000BF93EF93FF938091B900887F803609F466
:104070004AC0F0F5883209F4A7C018F5803109F478
:104080009BC0B8F4882309F4F9C0883009F494C0BF
:10409000FF91EF91BF91AF919F918F917F916F9120
:1040A0005F914F913F912F910F900FBE0F901F90F6
:1040B0001895883109F488C0803251F780938E02B8
:1040C00014C0803409F49DC040F48033B9F38833C0
:1040D000F9F680938E0285ECB0C0803509F485C076
:1040E000883509F496C0883499F60E944719D0CFD4
:1040F000883909F48CC038F5883729F050F48836AF
:1041000011F0803729F683E0809390021092060226
:1041100057C0883809F47BC0803919F0803809F01D
:10412000B7CF80910602803208F071C0E09106029C
:1041300081E08E0F809306028091BB00F0E0EA518F
:10414000FE4F80833DC0803B39F0E0F4803A09F4B3
:1041500079C0883A09F09CCF84E080939002109255
:10416000E5011092E401E0915503F09156030995A1
:104170008091E40181110FC081E08093E4011092ED
:10418000C40109C0803C09F4A6CF883C09F4A3CF40
:10419000883B09F07DCFE091E50181E08E0F8093AF
:1041A000E501F0E0EC53FE4F80818093BB009091DD
:1041B000E5018091E40129C080916B028093BB00EE
:1041C00085EC8093BC0064CF90918D0280918C022D
:1041D000981758F5E0918D0281E08E0F80938D0243
:1041E000F0E0E459FD4F8081E9CFE0918D0281E05C
:1041F0008E0F80938D028091BB00F0E0E459FD4F5B
:10420000808390918D0280918C029817C8F285E886
:10421000D8CFE0918D0281E08E0F80938D02809146
:10422000BB00F0E0E459FD4F808380918F02811143
:104230005CCF81E080936A0284EA8093BC00109294
:10424000900226CF85EC8093BC0010929002809162
:104250000602803230F4E0910602F0E0EA51FE4FAF
:1042600010826091060270E0E0915703F0915803CC
:1042700086EE91E00995109206020ACF10928E0206
:1042800034CFCF93DF93E8EBF2E01382128288EE13
:1042900093E0A0E0B0E084839583A683B78320E514
:1042A00031E03183208325EC30E03587248724EC0E
:1042B00030E037872687C0ECD0E0D18BC08B21EC73
:1042C00030E0338B228B22EC30E0358B248B26ECD4
:1042D00030E0378B268B118E128E138E148EEDE507
:1042E000F3E01382128284839583A683B78382E6E8
:1042F00091E091838083E9E6F3E0118210821282DB
:1043000013821482158216821782128611861486F1
:10431000138684E1858710925C0310925B031092F0
:104320005A03109259030E94321280E59AE090934A
:1043300056038093550381E59AE090935803809348
:104340005703E4E0F5E0D583C48380E190E09783F0
:10435000868388E1808780E891E09383828384E884
:1043600093E091838083E7E7F3E012861186148659
:10437000138681E29FE0DF91CF910C94E70DCF93FC
:10438000DF9300D0CDB7DEB7789484B5826084BD6A
:1043900084B5816084BD85B5826085BD85B5816049
:1043A00085BD80916E00816080936E0010928100C7
:1043B0008091810082608093810080918100816082
:1043C0008093810080918000816080938000809143
:1043D000B10084608093B1008091B00081608093CF
:1043E000B00080917A00846080937A0080917A0096
:1043F000826080937A0080917A00816080937A0055
:1044000080917A00806880937A001092C1001092A7
:104410005C0310925B0310925A03109259030E949E
:10442000321280E59AE0909356038093550381E51C
:104430009AE09093580380935703E091C802F0915B
:10444000C90282E08083E091C402F091C50210822B
:10445000E091C602F091C70283E380831092D002FC
:10446000E091CC02F091CD0286E08083E091CA0217
:10447000F091CB02808180618083E091CA02F0914B
:10448000CB02808188608083E091CA02F091CB02E8
:10449000808180688083E091CA02F091CB028081A4
:1044A0008F7D808362E088E00E94491062E08CE0AA
:1044B0000E9449100E94EA13BE016F5F7F4F90E097
:1044C00080E00E94891989819A81892B09F015C1A0
:1044D0008DE29EE00E94480F90E080E00E949616D8
:1044E00089E29EE00E94480F89819A810E94961677
:1044F0000E94601A84E893E090930E0580930D0566
:1045000080EC90E09093100580930F0580E190E09F
:1045100090931205809311058AB18C6F8AB98091AE
:10452000B100887F81608093B1001FB7F8948091BB
:104530001002811127C0E4E7FEE08491E0E6FEE08E
:104540009491E82FF0E0EE0FFF1FE45BF14FA5918F
:10455000B491EC91E92321F461E08AE00E94D50F47
:1045600061E08AE00E9449108CB580618CBD8CB5F9
:1045700080648CBD61E08DE00E94491061E08BE0B9
:104580000E944910809110028F5F809310021FBF1C
:1045900061E083E00E94491080E890E00E940310EF
:1045A00080E1809381001092800080E099E19093F7
:1045B00087008093860081E1809381008EE194E101
:1045C000909301018093000181E080936F009091AE
:1045D000170291110EC01092140210921302109241
:1045E000120210921102109216021092150280937C
:1045F00017028091130290911402892B41F51092B9
:10460000B0001092B1008091B00081608093B00042
:104610008091B0008D7F8093B0008091B100886060
:104620008093B10083E090E090931602809315028E
:1046300088EC8093B30085EC97E19093120280930D
:10464000110281E090E09093140280931302809114
:10465000170281110FC010921402109213021092CF
:10466000120210921102109216021092150281E0AD
:104670008093170280911302909114028D7F01970D
:1046800001F51092B2009091B100809115028770EF
:10469000987F892B8093B100809111029091120232
:1046A000892B49F08091B2008823E1F3809170005A
:1046B00081608093700082E090E090931402809378
:1046C00013020E946E1761E083E00E9449108FE997
:1046D00090E00E94031090E080E020910605309168
:1046E000070582179307E0F4E0910405F0910505B2
:1046F000E80FF91F10820196F0CF87E09EE00E943C
:10470000480F90E080E00E94961685E09EE00E94AF
:10471000480F89819A810E9496160E949D19EACEBF
:1047200060ED77E080E090E00E949F1000ED17E0E0
:10473000A0EC4A2E512C612C712CB0E18B2E912CC7
:10474000A12CB12C80E8282E312C0E944126A301F7
:1047500092010E9416276B010E944126A501940137
:104760000E94162720910F0530911005269FA00169
:10477000279F500D369F500D1124CA01E3E09695F6
:104780008795EA95E1F79601F3E036952795FA9536
:10479000E1F7820F931FE0910D05F0910E05E80FF0
:1047A000F91F8C2D8770910102C0359527958A9548
:1047B000E2F78081822B808361E070E080E090E00E
:1047C0000E949F100150110909F0BFCF10E000E0D6
:1047D0007FEBE72EF12CC8010E94180EC701801B49
:1047E000910B0E94180E6AE070E080E090E00E9459
:1047F0009F100F5F1F4F0036110569F72CE4622EE2
:1048000021E0722E30E4A32E31E0B32E40E1C42E1D
:1048100047E2D42E04E654E6252E52E0352E60E021
:10482000462E60E0562E1AE08BE09FE00E94480F73
:104830000E94ED1AF82E082E000C990B0E94A42954
:104840008534910509F4A8C1ECF48F33910539F151
:104850008334910509F41DC18AEF9EE00E94480F40
:104860006F2D88EB92E00E94FB0E88EF9EE00E9485
:10487000480F88EB92E00E94B90E892B91F00E94BC
:10488000ED1AF7CF8335910509F441C184359105BF
:10489000A1F08934910501F70E94601A02C00E94BC
:1048A000EA134114510409F4BFCF0E94C50E8823B6
:1048B00009F4B9CF0E940000B6CF0E94ED1AF82E7D
:1048C000082E000C990B0E94A4298235910509F449
:1048D000D4C08735910509F0BFCF0E94001FF82E84
:1048E0000E94001F90E0F09E800D911D1124909376
:1048F0006A03809369030E94001F80936B030E94E8
:10490000001F80936C030E94001F80936D030E9420
:10491000001F80936E030E94001F80936F030E940C
:10492000001F8093700361E082E00E94A5148091D3
:10493000620221E030E086FD02C022E030E0F101B9
:1049400086E011928A95E9F740916F03842F612FD9
:104950000E94B027982F880F890F880F840F8093AB
:10496000620240916E03842F0E94B027982F880F17
:10497000890F880F840F8093630240916D0321306B
:10498000310509F07DC04D3030F04C5040936D033F
:1049900081E08093710320916D03822F612F0E942B
:1049A000B027982F880F890F880F820F8093640299
:1049B00090917103992319F0806280936402809131
:1049C000640280648093640220917003822F612FBF
:1049D0000E94B027982F880F890F880F820F80932D
:1049E000650220916C03822F0E94B027982F880FB8
:1049F000890F880F820F8093660220916B03822FAC
:104A00000E94B027982F880F890F880F820F8093FC
:104A100067024091690350916A039A01205D374013
:104A20002536310528F080688093670224563109C5
:104A3000822F612F0E94B027982F880F890F880F2F
:104A4000820F8093680281E080939602E8E6E0930B
:104A5000B70210925A031092590360E08DE593E07B
:104A60000E94B81347E050E062E672E08DE593E003
:104A70000E948B1381E00E9471120E94E91611CFEF
:104A8000842F0E94B027982F880F890F880F840FDA
:104A900099CF0E94ED1AF82E082E000C990B0E9457
:104AA000A4298534910539F08235910509F0D4CED9
:104AB0000E945717F6CE0E94001FF82E0E94001F7A
:104AC000FC9C9001FD9C300D11247901809FE00C2D
:104AD000F11C11240E94001F8E0D9F2D911D90939B
:104AE0003E0280933D024AE063E372E00E94B726F3
:104AF00080E89EE00E94480F80913D0290913E0226
:104B00000E9496168EE79EE00E94480FCACE0E9431
:104B1000ED1AF82E082E000C990B0E94A42983355B
:104B20009105E9F18435910509F096CE9AE3892E35
:104B300091E0992E0E94001FF82E0E94001FFC9CFD
:104B40009001FD9C300D11247901809FE00CF11C37
:104B500011240E94001F8E0D9F2D911D9A83898321
:104B6000F401E190F1904F01BE016F5F7F4FC701EB
:104B70000E943C1A83EA9EE00E94480F89819A8134
:104B80000E94961682E99EE00E94480FC7010E948B
:104B90009616A814B90471F60E949D1982CE80E47D
:104BA000E82E81E0F82E0E94001F90E09A8389830E
:104BB000F701819091907F01BE016F5F7F4FC4012B
:104BC0000E943C1A84ED9EE00E94480F89819A81E0
:104BD0000E94961683EC9EE00E94480FC4010E943A
:104BE00096166E147F04F9F6D7CF8F929F92AF92EC
:104BF000BF92CF92DF92EF92FF92CF93DF93EC01BF
:104C0000688179818A819B81611571058105910592
:104C100021F464E279ED8BE597E02DE133EF41E09B
:104C200050E00E94162749015A019B01AC01A7EAF6
:104C3000B1E40E9435276B017C01ACEEB4EFA50115
:104C400094010E944327C60ED71EE81EF91EF7FEE8
:104C500006C081E0C81AD108E10880E8F80AC882D5
:104C6000D982EA82FB82C701B6019F77DF91CF919B
:104C7000FF90EF90DF90CF90BF90AF909F908F907C
:104C800008958F929F92AF92BF92CF92DF92EF9250
:104C9000FF92609102017091030180910401909153
:104CA0000501611571058105910521F464E279ED35
:104CB0008BE597E02DE133EF41E050E00E941627AD
:104CC00049015A019B01AC01A7EAB1E40E943527D2
:104CD0006B017C01ACEEB4EFA50194010E94432767
:104CE000C60ED71EE81EF91EF7FE06C081E0C81AE0
:104CF000D108E10880E8F80AC0920201D0920301CD
:104D0000E0920401F0920501C701B6019F77FF9080
:104D1000EF90DF90CF90BF90AF909F908F900895CD
:104D20006093020170930301809304019093050145
:104D30000895FC0188279927E89421912032E9F30E
:104D4000293010F02E30C8F32B3241F02D3239F4D7
:104D5000689404C00E94C226820F911D21912053A5
:104D60002A30C0F31EF4909581959F4F0895BB277C
:104D70004A3031F4992322F4BDE2909581959F4FFA
:104D80000C94CB267AE0979F902D879F802D910DD4
:104D900011240895BB27FB015527AA27880F991FC7
:104DA000AA1FA41710F0A41B83955051B9F7A05D5A
:104DB000AA3308F0A95DA193009779F7B111B193D7
:104DC0001192CB010C94ED2691110C94FD268032AA
:104DD00019F089508550C8F70895DC01FC01672F50
:104DE00071917723E1F7329704C07C916D937083C2
:104DF0006291AE17BF07C8F30895992788270895D1
:104E0000F999FECF92BD81BDF89A992780B5089592
:104E1000262FF999FECF1FBA92BD81BD20BD0FB6D6
:104E2000F894FA9AF99A0FBE01960895052E97FB09
:104E30001EF400940E942D2757FD07D00E947F2763
:104E400007FC03D04EF40C942D27509540953095D7
:104E500021953F4F4F4F5F4F0895909580957095E6
:104E600061957F4F8F4F9F4F08950E94A127A59F67
:104E7000900DB49F900DA49F800D911D1124089555
:104E8000B7FF0C9435270E943527821B930B08959A
:104E90002F923F924F925F926F927F928F929F924A
:104EA000AF92BF92CF92DF92EF92FF920F931F9338
:104EB000CF93DF93CDB7DEB7CA1BDB0B0FB6F894E9
:104EC000DEBF0FBECDBF09942A88398848885F8429
:104ED0006E847D848C849B84AA84B984C884DF809A
:104EE000EE80FD800C811B81AA81B981CE0FD11D7E
:104EF0000FB6F894DEBF0FBECDBFED010895A1E25D
:104F00001A2EAA1BBB1BFD010DC0AA1FBB1FEE1F43
:104F1000FF1FA217B307E407F50720F0A21BB30B8E
:104F2000E40BF50B661F771F881F991F1A9469F70A
:104F300060957095809590959B01AC01BD01CF0166
:104F40000895A29FB001B39FC001A39F700D811D62
:104F50001124911DB29F700D811D1124911D089582
:104F6000991B79E004C0991F961708F0961B881FBB
:104F70007A95C9F780950895EE0FFF1F0590F4917B
:104F8000E02D09940F931F93CF93DF938230910507
:104F900010F482E090E0E0911505F091160530E004
:104FA00020E0B0E0A0E0309799F42115310509F434
:104FB0004AC0281B390B24303105D8F58A819B81E2
:104FC0006115710589F1FB0193838283FE0111C094
:104FD000408151810281138148175907E0F0481739
:104FE000590799F4109761F012960C931297139643
:104FF0001C933296CF01DF91CF911F910F910895AD
:105000000093150510931605F4CF2115310551F0C5
:105010004217530738F0A901DB019A01BD01DF01F6
:10502000F801C1CFEF01F9CF9093160580931505D4
:10503000CDCFFE01E20FF31F8193919322503109EE
:1050400039832883D7CF2091130530911405232B62
:1050500041F4209108013091090130931405209307
:10506000130520910601309107012115310541F406
:105070002DB73EB740910A0150910B01241B350B0F
:10508000E0911305F0911405E217F307A0F42E1B2D
:105090003F0B2817390778F0AC014E5F5F4F24179C
:1050A000350748F04E0F5F1F5093140540931305CA
:1050B000819391939FCFF0E0E0E09CCFCF93DF937B
:1050C0000097E9F0FC01329713821282A091150536
:1050D000B0911605ED0130E020E01097A1F4208199
:1050E0003181820F931F20911305309114052817E9
:1050F000390709F061C0F0931405E0931305DF91BF
:10510000CF910895EA01CE17DF07E8F54A815B8168
:105110009E0141155105B1F7E901FB83EA834991ED
:105120005991C40FD51FEC17FD0761F4808191815F
:105130000296840F951FE901998388838281938168
:105140009B838A83F0E0E0E012968D919C91139707
:105150000097B9F52D913C911197CD010296820FE0
:10516000931F20911305309114052817390739F63C
:10517000309751F51092160510921505B09314054D
:10518000A0931305BCCFD383C28340815181840F88
:10519000951FC817D90761F44E5F5F4F88819981C9
:1051A000480F591F518340838A819B819383828357
:1051B0002115310509F0B0CFF0931605E0931505E0
:1051C0009ECFFD01DC01C0CF13821282D7CFB0E0A9
:1051D000A0E0EDEEF8E20C944A278C01009751F420
:1051E000CB010E94C2278C01C801CDB7DEB7E0E138
:1051F0000C946627FC01E60FF71F9C012250310931
:10520000E217F30708F49DC0D901CD91DC91119705
:10521000C617D70798F0C530D10530F3CE010497F3
:105220008617970708F3C61BD70B2297C193D19314
:105230006D937C93CF010E945E28D6CF5B01AC1AA0
:10524000BD0A4C018C0E9D1EA0911505B09116054E
:10525000512C412CF12CE12C109731F58091130544
:10526000909114058815990509F05CC046165706FB
:1052700008F058C08091060190910701009741F411
:105280008DB79EB740910A0150910B01841B950B7D
:10529000E817F90708F055C0F0931405E0931305DB
:1052A000F90171836083A0CF8D919C911197129623
:1052B0006C90129713967C901397A815B90559F521
:1052C0006C0142E0C40ED11CCA14DB0420F1AC0115
:1052D0004A195B09DA011296159780F0628273828F
:1052E00051834083D9016D937C93E114F10471F0F3
:1052F000D7011396FC93EE93129776CF22968C0FDC
:105300009D1FF90191838083F301EFCFF093160580
:10531000E093150569CF4816590608F42C017D0164
:10532000D3019ACFCB010E94C2277C01009749F09C
:10533000AE01B8010E94AC29C8010E945E28870115
:1053400053CF10E000E050CF9111089581568A515B
:1053500008F4805285580895FB01DC0102C00190D9
:105360000D9241505040D8F70895FB01DC010190A7
:105370000D920020E1F70895F894FFCF0912010083
:1053800000000000170580005348494654203100B2
:105390000000534849465420320000005348494613
:1053A0005420330000007D01820187018C019101AE
:1053B00096019B01A0010000140028003C003D0064
:1053C0003E003F004000410000000000FB0E5B0E6D
:1053D000880E630FB90E970EAB0E00000000B813D5
:1053E0008B13E713611384137113621320706D0024
:1053F00020616D003A00303000202D2D2D0020530B
:10540000756E00204D6F6E00205475650020576545
:10541000640020546875002046726900205361744E
:0254200000008A
:107E0000112484B714BE81FFF0D085E080938100F7
:107E100082E08093C00088E18093C10086E0809377
:107E2000C20080E18093C4008EE0C9D0259A86E02C
:107E300020E33CEF91E0309385002093840096BBD3
:107E4000B09BFECF1D9AA8958150A9F7CC24DD24C4
:107E500088248394B5E0AB2EA1E19A2EF3E0BF2EE7
:107E6000A2D0813461F49FD0082FAFD0023811F036
:107E7000013811F484E001C083E08DD089C08234E0
:107E800011F484E103C0853419F485E0A6D080C0E4
:107E9000853579F488D0E82EFF2485D0082F10E0AE
:107EA000102F00270E291F29000F111F8ED06801E7
:107EB0006FC0863521F484E090D080E0DECF843638
:107EC00009F040C070D06FD0082F6DD080E0C81688
:107ED00080E7D80618F4F601B7BEE895C0E0D1E017
:107EE00062D089930C17E1F7F0E0CF16F0E7DF06D8
:107EF00018F0F601B7BEE89568D007B600FCFDCFD4
:107F0000A601A0E0B1E02C9130E011968C91119780
:107F100090E0982F8827822B932B1296FA010C0160
:107F200087BEE89511244E5F5F4FF1E0A038BF0790
:107F300051F7F601A7BEE89507B600FCFDCF97BE46
:107F4000E89526C08437B1F42ED02DD0F82E2BD052
:107F50003CD0F601EF2C8F010F5F1F4F84911BD097
:107F6000EA94F801C1F70894C11CD11CFA94CF0C13
:107F7000D11C0EC0853739F428D08EE10CD085E9AC
:107F80000AD08FE07ACF813511F488E018D01DD067
:107F900080E101D065CF982F8091C00085FFFCCF94
:107FA0009093C60008958091C00087FFFCCF809118
:107FB000C00084FD01C0A8958091C6000895E0E648
:107FC000F0E098E1908380830895EDDF803219F02E
:107FD00088E0F5DFFFCF84E1DECF1F93182FE3DFCA
:107FE0001150E9F7F2DF1F91089580E0E8DFEE27F6
:047FF000FF270994CA
:027FFE00040479
:00000001FF
